{
  "_format": "hh-sol-artifact-1",
  "contractName": "CoinvestNFT",
  "sourceName": "contracts/CoinveestNFT.sol",
  "abi": [
    {
      "inputs": [],
      "stateMutability": "nonpayable",
      "type": "constructor"
    },
    {
      "anonymous": false,
      "inputs": [
        {
          "indexed": true,
          "internalType": "address",
          "name": "owner",
          "type": "address"
        },
        {
          "indexed": true,
          "internalType": "address",
          "name": "approved",
          "type": "address"
        },
        {
          "indexed": true,
          "internalType": "uint256",
          "name": "tokenId",
          "type": "uint256"
        }
      ],
      "name": "Approval",
      "type": "event"
    },
    {
      "anonymous": false,
      "inputs": [
        {
          "indexed": true,
          "internalType": "address",
          "name": "owner",
          "type": "address"
        },
        {
          "indexed": true,
          "internalType": "address",
          "name": "operator",
          "type": "address"
        },
        {
          "indexed": false,
          "internalType": "bool",
          "name": "approved",
          "type": "bool"
        }
      ],
      "name": "ApprovalForAll",
      "type": "event"
    },
    {
      "anonymous": false,
      "inputs": [
        {
          "indexed": false,
          "internalType": "address",
          "name": "account",
          "type": "address"
        }
      ],
      "name": "Paused",
      "type": "event"
    },
    {
      "anonymous": false,
      "inputs": [
        {
          "indexed": true,
          "internalType": "bytes32",
          "name": "role",
          "type": "bytes32"
        },
        {
          "indexed": true,
          "internalType": "bytes32",
          "name": "previousAdminRole",
          "type": "bytes32"
        },
        {
          "indexed": true,
          "internalType": "bytes32",
          "name": "newAdminRole",
          "type": "bytes32"
        }
      ],
      "name": "RoleAdminChanged",
      "type": "event"
    },
    {
      "anonymous": false,
      "inputs": [
        {
          "indexed": true,
          "internalType": "bytes32",
          "name": "role",
          "type": "bytes32"
        },
        {
          "indexed": true,
          "internalType": "address",
          "name": "account",
          "type": "address"
        },
        {
          "indexed": true,
          "internalType": "address",
          "name": "sender",
          "type": "address"
        }
      ],
      "name": "RoleGranted",
      "type": "event"
    },
    {
      "anonymous": false,
      "inputs": [
        {
          "indexed": true,
          "internalType": "bytes32",
          "name": "role",
          "type": "bytes32"
        },
        {
          "indexed": true,
          "internalType": "address",
          "name": "account",
          "type": "address"
        },
        {
          "indexed": true,
          "internalType": "address",
          "name": "sender",
          "type": "address"
        }
      ],
      "name": "RoleRevoked",
      "type": "event"
    },
    {
      "anonymous": false,
      "inputs": [
        {
          "indexed": true,
          "internalType": "address",
          "name": "from",
          "type": "address"
        },
        {
          "indexed": true,
          "internalType": "address",
          "name": "to",
          "type": "address"
        },
        {
          "indexed": true,
          "internalType": "uint256",
          "name": "tokenId",
          "type": "uint256"
        }
      ],
      "name": "Transfer",
      "type": "event"
    },
    {
      "anonymous": false,
      "inputs": [
        {
          "indexed": false,
          "internalType": "address",
          "name": "account",
          "type": "address"
        }
      ],
      "name": "Unpaused",
      "type": "event"
    },
    {
      "inputs": [],
      "name": "DEFAULT_ADMIN_ROLE",
      "outputs": [
        {
          "internalType": "bytes32",
          "name": "",
          "type": "bytes32"
        }
      ],
      "stateMutability": "view",
      "type": "function"
    },
    {
      "inputs": [],
      "name": "MINTER_ROLE",
      "outputs": [
        {
          "internalType": "bytes32",
          "name": "",
          "type": "bytes32"
        }
      ],
      "stateMutability": "view",
      "type": "function"
    },
    {
      "inputs": [],
      "name": "PAUSER_ROLE",
      "outputs": [
        {
          "internalType": "bytes32",
          "name": "",
          "type": "bytes32"
        }
      ],
      "stateMutability": "view",
      "type": "function"
    },
    {
      "inputs": [
        {
          "internalType": "address",
          "name": "userContract",
          "type": "address"
        }
      ],
      "name": "addMinter",
      "outputs": [],
      "stateMutability": "nonpayable",
      "type": "function"
    },
    {
      "inputs": [
        {
          "internalType": "address",
          "name": "to",
          "type": "address"
        },
        {
          "internalType": "uint256",
          "name": "tokenId",
          "type": "uint256"
        }
      ],
      "name": "approve",
      "outputs": [],
      "stateMutability": "nonpayable",
      "type": "function"
    },
    {
      "inputs": [
        {
          "internalType": "address",
          "name": "owner",
          "type": "address"
        }
      ],
      "name": "balanceOf",
      "outputs": [
        {
          "internalType": "uint256",
          "name": "",
          "type": "uint256"
        }
      ],
      "stateMutability": "view",
      "type": "function"
    },
    {
      "inputs": [
        {
          "internalType": "uint256",
          "name": "tokenId",
          "type": "uint256"
        }
      ],
      "name": "burn",
      "outputs": [],
      "stateMutability": "nonpayable",
      "type": "function"
    },
    {
      "inputs": [
        {
          "internalType": "uint256",
          "name": "tokenId",
          "type": "uint256"
        }
      ],
      "name": "getApproved",
      "outputs": [
        {
          "internalType": "address",
          "name": "",
          "type": "address"
        }
      ],
      "stateMutability": "view",
      "type": "function"
    },
    {
      "inputs": [
        {
          "internalType": "bytes32",
          "name": "role",
          "type": "bytes32"
        }
      ],
      "name": "getRoleAdmin",
      "outputs": [
        {
          "internalType": "bytes32",
          "name": "",
          "type": "bytes32"
        }
      ],
      "stateMutability": "view",
      "type": "function"
    },
    {
      "inputs": [
        {
          "internalType": "bytes32",
          "name": "role",
          "type": "bytes32"
        },
        {
          "internalType": "address",
          "name": "account",
          "type": "address"
        }
      ],
      "name": "grantRole",
      "outputs": [],
      "stateMutability": "nonpayable",
      "type": "function"
    },
    {
      "inputs": [
        {
          "internalType": "bytes32",
          "name": "role",
          "type": "bytes32"
        },
        {
          "internalType": "address",
          "name": "account",
          "type": "address"
        }
      ],
      "name": "hasRole",
      "outputs": [
        {
          "internalType": "bool",
          "name": "",
          "type": "bool"
        }
      ],
      "stateMutability": "view",
      "type": "function"
    },
    {
      "inputs": [
        {
          "internalType": "address",
          "name": "owner",
          "type": "address"
        },
        {
          "internalType": "address",
          "name": "operator",
          "type": "address"
        }
      ],
      "name": "isApprovedForAll",
      "outputs": [
        {
          "internalType": "bool",
          "name": "",
          "type": "bool"
        }
      ],
      "stateMutability": "view",
      "type": "function"
    },
    {
      "inputs": [],
      "name": "name",
      "outputs": [
        {
          "internalType": "string",
          "name": "",
          "type": "string"
        }
      ],
      "stateMutability": "view",
      "type": "function"
    },
    {
      "inputs": [
        {
          "internalType": "uint256",
          "name": "tokenId",
          "type": "uint256"
        }
      ],
      "name": "ownerOf",
      "outputs": [
        {
          "internalType": "address",
          "name": "",
          "type": "address"
        }
      ],
      "stateMutability": "view",
      "type": "function"
    },
    {
      "inputs": [],
      "name": "pause",
      "outputs": [],
      "stateMutability": "nonpayable",
      "type": "function"
    },
    {
      "inputs": [],
      "name": "paused",
      "outputs": [
        {
          "internalType": "bool",
          "name": "",
          "type": "bool"
        }
      ],
      "stateMutability": "view",
      "type": "function"
    },
    {
      "inputs": [
        {
          "internalType": "bytes32",
          "name": "role",
          "type": "bytes32"
        },
        {
          "internalType": "address",
          "name": "account",
          "type": "address"
        }
      ],
      "name": "renounceRole",
      "outputs": [],
      "stateMutability": "nonpayable",
      "type": "function"
    },
    {
      "inputs": [
        {
          "internalType": "bytes32",
          "name": "role",
          "type": "bytes32"
        },
        {
          "internalType": "address",
          "name": "account",
          "type": "address"
        }
      ],
      "name": "revokeRole",
      "outputs": [],
      "stateMutability": "nonpayable",
      "type": "function"
    },
    {
      "inputs": [
        {
          "internalType": "address",
          "name": "to",
          "type": "address"
        },
        {
          "internalType": "uint256",
          "name": "tokenId",
          "type": "uint256"
        },
        {
          "internalType": "string",
          "name": "uri",
          "type": "string"
        }
      ],
      "name": "safeMint",
      "outputs": [],
      "stateMutability": "nonpayable",
      "type": "function"
    },
    {
      "inputs": [
        {
          "internalType": "address",
          "name": "from",
          "type": "address"
        },
        {
          "internalType": "address",
          "name": "to",
          "type": "address"
        },
        {
          "internalType": "uint256",
          "name": "tokenId",
          "type": "uint256"
        }
      ],
      "name": "safeTransferFrom",
      "outputs": [],
      "stateMutability": "nonpayable",
      "type": "function"
    },
    {
      "inputs": [
        {
          "internalType": "address",
          "name": "from",
          "type": "address"
        },
        {
          "internalType": "address",
          "name": "to",
          "type": "address"
        },
        {
          "internalType": "uint256",
          "name": "tokenId",
          "type": "uint256"
        },
        {
          "internalType": "bytes",
          "name": "_data",
          "type": "bytes"
        }
      ],
      "name": "safeTransferFrom",
      "outputs": [],
      "stateMutability": "nonpayable",
      "type": "function"
    },
    {
      "inputs": [
        {
          "internalType": "address",
          "name": "operator",
          "type": "address"
        },
        {
          "internalType": "bool",
          "name": "approved",
          "type": "bool"
        }
      ],
      "name": "setApprovalForAll",
      "outputs": [],
      "stateMutability": "nonpayable",
      "type": "function"
    },
    {
      "inputs": [
        {
          "internalType": "bytes4",
          "name": "interfaceId",
          "type": "bytes4"
        }
      ],
      "name": "supportsInterface",
      "outputs": [
        {
          "internalType": "bool",
          "name": "",
          "type": "bool"
        }
      ],
      "stateMutability": "view",
      "type": "function"
    },
    {
      "inputs": [],
      "name": "symbol",
      "outputs": [
        {
          "internalType": "string",
          "name": "",
          "type": "string"
        }
      ],
      "stateMutability": "view",
      "type": "function"
    },
    {
      "inputs": [
        {
          "internalType": "uint256",
          "name": "tokenId",
          "type": "uint256"
        }
      ],
      "name": "tokenURI",
      "outputs": [
        {
          "internalType": "string",
          "name": "",
          "type": "string"
        }
      ],
      "stateMutability": "view",
      "type": "function"
    },
    {
      "inputs": [
        {
          "internalType": "address",
          "name": "from",
          "type": "address"
        },
        {
          "internalType": "address",
          "name": "to",
          "type": "address"
        },
        {
          "internalType": "uint256",
          "name": "tokenId",
          "type": "uint256"
        }
      ],
      "name": "transferFrom",
      "outputs": [],
      "stateMutability": "nonpayable",
      "type": "function"
    },
    {
      "inputs": [],
      "name": "unpause",
      "outputs": [],
      "stateMutability": "nonpayable",
      "type": "function"
    }
  ],
  "bytecode": "0x60806040523480156200001157600080fd5b506040518060400160405280600b81526020017f436f696e766573744e46540000000000000000000000000000000000000000008152506040518060400160405280600481526020017f434e465400000000000000000000000000000000000000000000000000000000815250816000908051906020019062000096929190620002b1565b508060019080519060200190620000af929190620002b1565b5050506000600760006101000a81548160ff021916908315150217905550620000e26000801b336200014c60201b60201c565b620001147f65d7a28e3265b37a6474929f336521b332c1681b933f6cb9f3376673440d862a336200014c60201b60201c565b620001467f9f2df0fed2c77648de5860a4cc508cd0818c85b8b8a1ab4ceeef8d981c8956a6336200014c60201b60201c565b620003c6565b6200015e82826200023e60201b60201c565b6200023a5760016008600084815260200190815260200160002060000160008373ffffffffffffffffffffffffffffffffffffffff1673ffffffffffffffffffffffffffffffffffffffff16815260200190815260200160002060006101000a81548160ff021916908315150217905550620001df620002a960201b60201c565b73ffffffffffffffffffffffffffffffffffffffff168173ffffffffffffffffffffffffffffffffffffffff16837f2f8788117e7eff1d82e926ec794901d17c78024a50270940304540a733656f0d60405160405180910390a45b5050565b60006008600084815260200190815260200160002060000160008373ffffffffffffffffffffffffffffffffffffffff1673ffffffffffffffffffffffffffffffffffffffff16815260200190815260200160002060009054906101000a900460ff16905092915050565b600033905090565b828054620002bf9062000390565b90600052602060002090601f016020900481019282620002e357600085556200032f565b82601f10620002fe57805160ff19168380011785556200032f565b828001600101855582156200032f579182015b828111156200032e57825182559160200191906001019062000311565b5b5090506200033e919062000342565b5090565b5b808211156200035d57600081600090555060010162000343565b5090565b7f4e487b7100000000000000000000000000000000000000000000000000000000600052602260045260246000fd5b60006002820490506001821680620003a957607f821691505b60208210811415620003c057620003bf62000361565b5b50919050565b613e5f80620003d66000396000f3fe608060405234801561001057600080fd5b50600436106101a95760003560e01c806370a08231116100f9578063b88d4fde11610097578063d539139311610071578063d5391393146104a2578063d547741f146104c0578063e63ab1e9146104dc578063e985e9c5146104fa576101a9565b8063b88d4fde1461043a578063c87b56dd14610456578063cd279c7c14610486576101a9565b806395d89b41116100d357806395d89b41146103c6578063983b2d56146103e4578063a217fddf14610400578063a22cb4651461041e576101a9565b806370a082311461035c5780638456cb591461038c57806391d1485414610396576101a9565b80632f2ff15d1161016657806342842e0e1161014057806342842e0e146102d657806342966c68146102f25780635c975abb1461030e5780636352211e1461032c576101a9565b80632f2ff15d1461029457806336568abe146102b05780633f4ba83a146102cc576101a9565b806301ffc9a7146101ae57806306fdde03146101de578063081812fc146101fc578063095ea7b31461022c57806323b872dd14610248578063248a9ca314610264575b600080fd5b6101c860048036038101906101c39190612723565b61052a565b6040516101d5919061276b565b60405180910390f35b6101e661053c565b6040516101f3919061281f565b60405180910390f35b61021660048036038101906102119190612877565b6105ce565b60405161022391906128e5565b60405180910390f35b6102466004803603810190610241919061292c565b610653565b005b610262600480360381019061025d919061296c565b61076b565b005b61027e600480360381019061027991906129f5565b6107cb565b60405161028b9190612a31565b60405180910390f35b6102ae60048036038101906102a99190612a4c565b6107eb565b005b6102ca60048036038101906102c59190612a4c565b61080c565b005b6102d461088f565b005b6102f060048036038101906102eb919061296c565b6108c4565b005b61030c60048036038101906103079190612877565b6108e4565b005b610316610940565b604051610323919061276b565b60405180910390f35b61034660048036038101906103419190612877565b610957565b60405161035391906128e5565b60405180910390f35b61037660048036038101906103719190612a8c565b610a09565b6040516103839190612ac8565b60405180910390f35b610394610ac1565b005b6103b060048036038101906103ab9190612a4c565b610af6565b6040516103bd919061276b565b60405180910390f35b6103ce610b61565b6040516103db919061281f565b60405180910390f35b6103fe60048036038101906103f99190612a8c565b610bf3565b005b610408610c4b565b6040516104159190612a31565b60405180910390f35b61043860048036038101906104339190612b0f565b610c52565b005b610454600480360381019061044f9190612c84565b610c68565b005b610470600480360381019061046b9190612877565b610cca565b60405161047d919061281f565b60405180910390f35b6104a0600480360381019061049b9190612da8565b610cdc565b005b6104aa610d20565b6040516104b79190612a31565b60405180910390f35b6104da60048036038101906104d59190612a4c565b610d44565b005b6104e4610d65565b6040516104f19190612a31565b60405180910390f35b610514600480360381019061050f9190612e17565b610d89565b604051610521919061276b565b60405180910390f35b600061053582610e1d565b9050919050565b60606000805461054b90612e86565b80601f016020809104026020016040519081016040528092919081815260200182805461057790612e86565b80156105c45780601f10610599576101008083540402835291602001916105c4565b820191906000526020600020905b8154815290600101906020018083116105a757829003601f168201915b5050505050905090565b60006105d982610e97565b610618576040517f08c379a000000000000000000000000000000000000000000000000000000000815260040161060f90612f2a565b60405180910390fd5b6004600083815260200190815260200160002060009054906101000a900473ffffffffffffffffffffffffffffffffffffffff169050919050565b600061065e82610957565b90508073ffffffffffffffffffffffffffffffffffffffff168373ffffffffffffffffffffffffffffffffffffffff1614156106cf576040517f08c379a00000000000000000000000000000000000000000000000000000000081526004016106c690612fbc565b60405180910390fd5b8073ffffffffffffffffffffffffffffffffffffffff166106ee610f03565b73ffffffffffffffffffffffffffffffffffffffff16148061071d575061071c81610717610f03565b610d89565b5b61075c576040517f08c379a00000000000000000000000000000000000000000000000000000000081526004016107539061304e565b60405180910390fd5b6107668383610f0b565b505050565b61077c610776610f03565b82610fc4565b6107bb576040517f08c379a00000000000000000000000000000000000000000000000000000000081526004016107b2906130e0565b60405180910390fd5b6107c68383836110a2565b505050565b600060086000838152602001908152602001600020600101549050919050565b6107f4826107cb565b6107fd81611309565b610807838361131d565b505050565b610814610f03565b73ffffffffffffffffffffffffffffffffffffffff168173ffffffffffffffffffffffffffffffffffffffff1614610881576040517f08c379a000000000000000000000000000000000000000000000000000000000815260040161087890613172565b60405180910390fd5b61088b82826113fe565b5050565b7f65d7a28e3265b37a6474929f336521b332c1681b933f6cb9f3376673440d862a6108b981611309565b6108c16114e0565b50565b6108df83838360405180602001604052806000815250610c68565b505050565b6108f56108ef610f03565b82610fc4565b610934576040517f08c379a000000000000000000000000000000000000000000000000000000000815260040161092b90613204565b60405180910390fd5b61093d81611582565b50565b6000600760009054906101000a900460ff16905090565b6000806002600084815260200190815260200160002060009054906101000a900473ffffffffffffffffffffffffffffffffffffffff169050600073ffffffffffffffffffffffffffffffffffffffff168173ffffffffffffffffffffffffffffffffffffffff161415610a00576040517f08c379a00000000000000000000000000000000000000000000000000000000081526004016109f790613296565b60405180910390fd5b80915050919050565b60008073ffffffffffffffffffffffffffffffffffffffff168273ffffffffffffffffffffffffffffffffffffffff161415610a7a576040517f08c379a0000000000000000000000000000000000000000000000000000000008152600401610a7190613328565b60405180910390fd5b600360008373ffffffffffffffffffffffffffffffffffffffff1673ffffffffffffffffffffffffffffffffffffffff168152602001908152602001600020549050919050565b7f65d7a28e3265b37a6474929f336521b332c1681b933f6cb9f3376673440d862a610aeb81611309565b610af361158e565b50565b60006008600084815260200190815260200160002060000160008373ffffffffffffffffffffffffffffffffffffffff1673ffffffffffffffffffffffffffffffffffffffff16815260200190815260200160002060009054906101000a900460ff16905092915050565b606060018054610b7090612e86565b80601f0160208091040260200160405190810160405280929190818152602001828054610b9c90612e86565b8015610be95780601f10610bbe57610100808354040283529160200191610be9565b820191906000526020600020905b815481529060010190602001808311610bcc57829003601f168201915b5050505050905090565b7f9f2df0fed2c77648de5860a4cc508cd0818c85b8b8a1ab4ceeef8d981c8956a6610c1d81611309565b610c477f9f2df0fed2c77648de5860a4cc508cd0818c85b8b8a1ab4ceeef8d981c8956a68361131d565b5050565b6000801b81565b610c64610c5d610f03565b8383611631565b5050565b610c79610c73610f03565b83610fc4565b610cb8576040517f08c379a0000000000000000000000000000000000000000000000000000000008152600401610caf906130e0565b60405180910390fd5b610cc48484848461179e565b50505050565b6060610cd5826117fa565b9050919050565b7f9f2df0fed2c77648de5860a4cc508cd0818c85b8b8a1ab4ceeef8d981c8956a6610d0681611309565b610d10848461194c565b610d1a838361196a565b50505050565b7f9f2df0fed2c77648de5860a4cc508cd0818c85b8b8a1ab4ceeef8d981c8956a681565b610d4d826107cb565b610d5681611309565b610d6083836113fe565b505050565b7f65d7a28e3265b37a6474929f336521b332c1681b933f6cb9f3376673440d862a81565b6000600560008473ffffffffffffffffffffffffffffffffffffffff1673ffffffffffffffffffffffffffffffffffffffff16815260200190815260200160002060008373ffffffffffffffffffffffffffffffffffffffff1673ffffffffffffffffffffffffffffffffffffffff16815260200190815260200160002060009054906101000a900460ff16905092915050565b60007f7965db0b000000000000000000000000000000000000000000000000000000007bffffffffffffffffffffffffffffffffffffffffffffffffffffffff1916827bffffffffffffffffffffffffffffffffffffffffffffffffffffffff19161480610e905750610e8f826119de565b5b9050919050565b60008073ffffffffffffffffffffffffffffffffffffffff166002600084815260200190815260200160002060009054906101000a900473ffffffffffffffffffffffffffffffffffffffff1673ffffffffffffffffffffffffffffffffffffffff1614159050919050565b600033905090565b816004600083815260200190815260200160002060006101000a81548173ffffffffffffffffffffffffffffffffffffffff021916908373ffffffffffffffffffffffffffffffffffffffff160217905550808273ffffffffffffffffffffffffffffffffffffffff16610f7e83610957565b73ffffffffffffffffffffffffffffffffffffffff167f8c5be1e5ebec7d5bd14f71427d1e84f3dd0314c0f7b2291e5b200ac8c7c3b92560405160405180910390a45050565b6000610fcf82610e97565b61100e576040517f08c379a0000000000000000000000000000000000000000000000000000000008152600401611005906133ba565b60405180910390fd5b600061101983610957565b90508073ffffffffffffffffffffffffffffffffffffffff168473ffffffffffffffffffffffffffffffffffffffff16148061105b575061105a8185610d89565b5b8061109957508373ffffffffffffffffffffffffffffffffffffffff16611081846105ce565b73ffffffffffffffffffffffffffffffffffffffff16145b91505092915050565b8273ffffffffffffffffffffffffffffffffffffffff166110c282610957565b73ffffffffffffffffffffffffffffffffffffffff1614611118576040517f08c379a000000000000000000000000000000000000000000000000000000000815260040161110f9061344c565b60405180910390fd5b600073ffffffffffffffffffffffffffffffffffffffff168273ffffffffffffffffffffffffffffffffffffffff161415611188576040517f08c379a000000000000000000000000000000000000000000000000000000000815260040161117f906134de565b60405180910390fd5b611193838383611ac0565b61119e600082610f0b565b6001600360008573ffffffffffffffffffffffffffffffffffffffff1673ffffffffffffffffffffffffffffffffffffffff16815260200190815260200160002060008282546111ee919061352d565b925050819055506001600360008473ffffffffffffffffffffffffffffffffffffffff1673ffffffffffffffffffffffffffffffffffffffff16815260200190815260200160002060008282546112459190613561565b92505081905550816002600083815260200190815260200160002060006101000a81548173ffffffffffffffffffffffffffffffffffffffff021916908373ffffffffffffffffffffffffffffffffffffffff160217905550808273ffffffffffffffffffffffffffffffffffffffff168473ffffffffffffffffffffffffffffffffffffffff167fddf252ad1be2c89b69c2b068fc378daa952ba7f163c4a11628f55a4df523b3ef60405160405180910390a4611304838383611b18565b505050565b61131a81611315610f03565b611b1d565b50565b6113278282610af6565b6113fa5760016008600084815260200190815260200160002060000160008373ffffffffffffffffffffffffffffffffffffffff1673ffffffffffffffffffffffffffffffffffffffff16815260200190815260200160002060006101000a81548160ff02191690831515021790555061139f610f03565b73ffffffffffffffffffffffffffffffffffffffff168173ffffffffffffffffffffffffffffffffffffffff16837f2f8788117e7eff1d82e926ec794901d17c78024a50270940304540a733656f0d60405160405180910390a45b5050565b6114088282610af6565b156114dc5760006008600084815260200190815260200160002060000160008373ffffffffffffffffffffffffffffffffffffffff1673ffffffffffffffffffffffffffffffffffffffff16815260200190815260200160002060006101000a81548160ff021916908315150217905550611481610f03565b73ffffffffffffffffffffffffffffffffffffffff168173ffffffffffffffffffffffffffffffffffffffff16837ff6391f5c32d9c69d2a47ea670b442974b53935d1edc7fd64eb21e047a839171b60405160405180910390a45b5050565b6114e8610940565b611527576040517f08c379a000000000000000000000000000000000000000000000000000000000815260040161151e90613603565b60405180910390fd5b6000600760006101000a81548160ff0219169083151502179055507f5db9ee0a495bf2e6ff9c91a7834c1ba4fdd244a5e8aa4e537bd38aeae4b073aa61156b610f03565b60405161157891906128e5565b60405180910390a1565b61158b81611bba565b50565b611596610940565b156115d6576040517f08c379a00000000000000000000000000000000000000000000000000000000081526004016115cd9061366f565b60405180910390fd5b6001600760006101000a81548160ff0219169083151502179055507f62e78cea01bee320cd4e420270b5ea74000d11b0c9f74754ebdbfc544b05a25861161a610f03565b60405161162791906128e5565b60405180910390a1565b8173ffffffffffffffffffffffffffffffffffffffff168373ffffffffffffffffffffffffffffffffffffffff1614156116a0576040517f08c379a0000000000000000000000000000000000000000000000000000000008152600401611697906136db565b60405180910390fd5b80600560008573ffffffffffffffffffffffffffffffffffffffff1673ffffffffffffffffffffffffffffffffffffffff16815260200190815260200160002060008473ffffffffffffffffffffffffffffffffffffffff1673ffffffffffffffffffffffffffffffffffffffff16815260200190815260200160002060006101000a81548160ff0219169083151502179055508173ffffffffffffffffffffffffffffffffffffffff168373ffffffffffffffffffffffffffffffffffffffff167f17307eab39ab6107e8899845ad3d59bd9653f200f220920489ca2b5937696c3183604051611791919061276b565b60405180910390a3505050565b6117a98484846110a2565b6117b584848484611c0d565b6117f4576040517f08c379a00000000000000000000000000000000000000000000000000000000081526004016117eb9061376d565b60405180910390fd5b50505050565b606061180582610e97565b611844576040517f08c379a000000000000000000000000000000000000000000000000000000000815260040161183b906137ff565b60405180910390fd5b600060066000848152602001908152602001600020805461186490612e86565b80601f016020809104026020016040519081016040528092919081815260200182805461189090612e86565b80156118dd5780601f106118b2576101008083540402835291602001916118dd565b820191906000526020600020905b8154815290600101906020018083116118c057829003601f168201915b5050505050905060006118ee611d95565b9050600081511415611904578192505050611947565b60008251111561193957808260405160200161192192919061385b565b60405160208183030381529060405292505050611947565b61194284611dac565b925050505b919050565b611966828260405180602001604052806000815250611e53565b5050565b61197382610e97565b6119b2576040517f08c379a00000000000000000000000000000000000000000000000000000000081526004016119a9906138f1565b60405180910390fd5b806006600084815260200190815260200160002090805190602001906119d99291906125d4565b505050565b60007f80ac58cd000000000000000000000000000000000000000000000000000000007bffffffffffffffffffffffffffffffffffffffffffffffffffffffff1916827bffffffffffffffffffffffffffffffffffffffffffffffffffffffff19161480611aa957507f5b5e139f000000000000000000000000000000000000000000000000000000007bffffffffffffffffffffffffffffffffffffffffffffffffffffffff1916827bffffffffffffffffffffffffffffffffffffffffffffffffffffffff1916145b80611ab95750611ab882611eae565b5b9050919050565b611ac8610940565b15611b08576040517f08c379a0000000000000000000000000000000000000000000000000000000008152600401611aff9061366f565b60405180910390fd5b611b13838383611f18565b505050565b505050565b611b278282610af6565b611bb657611b4c8173ffffffffffffffffffffffffffffffffffffffff166014611f1d565b611b5a8360001c6020611f1d565b604051602001611b6b9291906139a9565b6040516020818303038152906040526040517f08c379a0000000000000000000000000000000000000000000000000000000008152600401611bad919061281f565b60405180910390fd5b5050565b611bc381612159565b6000600660008381526020019081526020016000208054611be390612e86565b905014611c0a57600660008281526020019081526020016000206000611c09919061265a565b5b50565b6000611c2e8473ffffffffffffffffffffffffffffffffffffffff16612276565b15611d88578373ffffffffffffffffffffffffffffffffffffffff1663150b7a02611c57610f03565b8786866040518563ffffffff1660e01b8152600401611c799493929190613a38565b6020604051808303816000875af1925050508015611cb557506040513d601f19601f82011682018060405250810190611cb29190613a99565b60015b611d38573d8060008114611ce5576040519150601f19603f3d011682016040523d82523d6000602084013e611cea565b606091505b50600081511415611d30576040517f08c379a0000000000000000000000000000000000000000000000000000000008152600401611d279061376d565b60405180910390fd5b805181602001fd5b63150b7a0260e01b7bffffffffffffffffffffffffffffffffffffffffffffffffffffffff1916817bffffffffffffffffffffffffffffffffffffffffffffffffffffffff191614915050611d8d565b600190505b949350505050565b606060405180602001604052806000815250905090565b6060611db782610e97565b611df6576040517f08c379a0000000000000000000000000000000000000000000000000000000008152600401611ded90613b38565b60405180910390fd5b6000611e00611d95565b90506000815111611e205760405180602001604052806000815250611e4b565b80611e2a84612299565b604051602001611e3b92919061385b565b6040516020818303038152906040525b915050919050565b611e5d83836123fa565b611e6a6000848484611c0d565b611ea9576040517f08c379a0000000000000000000000000000000000000000000000000000000008152600401611ea09061376d565b60405180910390fd5b505050565b60007f01ffc9a7000000000000000000000000000000000000000000000000000000007bffffffffffffffffffffffffffffffffffffffffffffffffffffffff1916827bffffffffffffffffffffffffffffffffffffffffffffffffffffffff1916149050919050565b505050565b606060006002836002611f309190613b58565b611f3a9190613561565b67ffffffffffffffff811115611f5357611f52612b59565b5b6040519080825280601f01601f191660200182016040528015611f855781602001600182028036833780820191505090505b5090507f300000000000000000000000000000000000000000000000000000000000000081600081518110611fbd57611fbc613bb2565b5b60200101907effffffffffffffffffffffffffffffffffffffffffffffffffffffffffffff1916908160001a9053507f78000000000000000000000000000000000000000000000000000000000000008160018151811061202157612020613bb2565b5b60200101907effffffffffffffffffffffffffffffffffffffffffffffffffffffffffffff1916908160001a905350600060018460026120619190613b58565b61206b9190613561565b90505b600181111561210b577f3031323334353637383961626364656600000000000000000000000000000000600f8616601081106120ad576120ac613bb2565b5b1a60f81b8282815181106120c4576120c3613bb2565b5b60200101907effffffffffffffffffffffffffffffffffffffffffffffffffffffffffffff1916908160001a905350600485901c94508061210490613be1565b905061206e565b506000841461214f576040517f08c379a000000000000000000000000000000000000000000000000000000000815260040161214690613c57565b60405180910390fd5b8091505092915050565b600061216482610957565b905061217281600084611ac0565b61217d600083610f0b565b6001600360008373ffffffffffffffffffffffffffffffffffffffff1673ffffffffffffffffffffffffffffffffffffffff16815260200190815260200160002060008282546121cd919061352d565b925050819055506002600083815260200190815260200160002060006101000a81549073ffffffffffffffffffffffffffffffffffffffff021916905581600073ffffffffffffffffffffffffffffffffffffffff168273ffffffffffffffffffffffffffffffffffffffff167fddf252ad1be2c89b69c2b068fc378daa952ba7f163c4a11628f55a4df523b3ef60405160405180910390a461227281600084611b18565b5050565b6000808273ffffffffffffffffffffffffffffffffffffffff163b119050919050565b606060008214156122e1576040518060400160405280600181526020017f300000000000000000000000000000000000000000000000000000000000000081525090506123f5565b600082905060005b600082146123135780806122fc90613c77565b915050600a8261230c9190613cef565b91506122e9565b60008167ffffffffffffffff81111561232f5761232e612b59565b5b6040519080825280601f01601f1916602001820160405280156123615781602001600182028036833780820191505090505b5090505b600085146123ee5760018261237a919061352d565b9150600a856123899190613d20565b60306123959190613561565b60f81b8183815181106123ab576123aa613bb2565b5b60200101907effffffffffffffffffffffffffffffffffffffffffffffffffffffffffffff1916908160001a905350600a856123e79190613cef565b9450612365565b8093505050505b919050565b600073ffffffffffffffffffffffffffffffffffffffff168273ffffffffffffffffffffffffffffffffffffffff16141561246a576040517f08c379a000000000000000000000000000000000000000000000000000000000815260040161246190613d9d565b60405180910390fd5b61247381610e97565b156124b3576040517f08c379a00000000000000000000000000000000000000000000000000000000081526004016124aa90613e09565b60405180910390fd5b6124bf60008383611ac0565b6001600360008473ffffffffffffffffffffffffffffffffffffffff1673ffffffffffffffffffffffffffffffffffffffff168152602001908152602001600020600082825461250f9190613561565b92505081905550816002600083815260200190815260200160002060006101000a81548173ffffffffffffffffffffffffffffffffffffffff021916908373ffffffffffffffffffffffffffffffffffffffff160217905550808273ffffffffffffffffffffffffffffffffffffffff16600073ffffffffffffffffffffffffffffffffffffffff167fddf252ad1be2c89b69c2b068fc378daa952ba7f163c4a11628f55a4df523b3ef60405160405180910390a46125d060008383611b18565b5050565b8280546125e090612e86565b90600052602060002090601f0160209004810192826126025760008555612649565b82601f1061261b57805160ff1916838001178555612649565b82800160010185558215612649579182015b8281111561264857825182559160200191906001019061262d565b5b509050612656919061269a565b5090565b50805461266690612e86565b6000825580601f106126785750612697565b601f016020900490600052602060002090810190612696919061269a565b5b50565b5b808211156126b357600081600090555060010161269b565b5090565b6000604051905090565b600080fd5b600080fd5b60007fffffffff0000000000000000000000000000000000000000000000000000000082169050919050565b612700816126cb565b811461270b57600080fd5b50565b60008135905061271d816126f7565b92915050565b600060208284031215612739576127386126c1565b5b60006127478482850161270e565b91505092915050565b60008115159050919050565b61276581612750565b82525050565b6000602082019050612780600083018461275c565b92915050565b600081519050919050565b600082825260208201905092915050565b60005b838110156127c05780820151818401526020810190506127a5565b838111156127cf576000848401525b50505050565b6000601f19601f8301169050919050565b60006127f182612786565b6127fb8185612791565b935061280b8185602086016127a2565b612814816127d5565b840191505092915050565b6000602082019050818103600083015261283981846127e6565b905092915050565b6000819050919050565b61285481612841565b811461285f57600080fd5b50565b6000813590506128718161284b565b92915050565b60006020828403121561288d5761288c6126c1565b5b600061289b84828501612862565b91505092915050565b600073ffffffffffffffffffffffffffffffffffffffff82169050919050565b60006128cf826128a4565b9050919050565b6128df816128c4565b82525050565b60006020820190506128fa60008301846128d6565b92915050565b612909816128c4565b811461291457600080fd5b50565b60008135905061292681612900565b92915050565b60008060408385031215612943576129426126c1565b5b600061295185828601612917565b925050602061296285828601612862565b9150509250929050565b600080600060608486031215612985576129846126c1565b5b600061299386828701612917565b93505060206129a486828701612917565b92505060406129b586828701612862565b9150509250925092565b6000819050919050565b6129d2816129bf565b81146129dd57600080fd5b50565b6000813590506129ef816129c9565b92915050565b600060208284031215612a0b57612a0a6126c1565b5b6000612a19848285016129e0565b91505092915050565b612a2b816129bf565b82525050565b6000602082019050612a466000830184612a22565b92915050565b60008060408385031215612a6357612a626126c1565b5b6000612a71858286016129e0565b9250506020612a8285828601612917565b9150509250929050565b600060208284031215612aa257612aa16126c1565b5b6000612ab084828501612917565b91505092915050565b612ac281612841565b82525050565b6000602082019050612add6000830184612ab9565b92915050565b612aec81612750565b8114612af757600080fd5b50565b600081359050612b0981612ae3565b92915050565b60008060408385031215612b2657612b256126c1565b5b6000612b3485828601612917565b9250506020612b4585828601612afa565b9150509250929050565b600080fd5b600080fd5b7f4e487b7100000000000000000000000000000000000000000000000000000000600052604160045260246000fd5b612b91826127d5565b810181811067ffffffffffffffff82111715612bb057612baf612b59565b5b80604052505050565b6000612bc36126b7565b9050612bcf8282612b88565b919050565b600067ffffffffffffffff821115612bef57612bee612b59565b5b612bf8826127d5565b9050602081019050919050565b82818337600083830152505050565b6000612c27612c2284612bd4565b612bb9565b905082815260208101848484011115612c4357612c42612b54565b5b612c4e848285612c05565b509392505050565b600082601f830112612c6b57612c6a612b4f565b5b8135612c7b848260208601612c14565b91505092915050565b60008060008060808587031215612c9e57612c9d6126c1565b5b6000612cac87828801612917565b9450506020612cbd87828801612917565b9350506040612cce87828801612862565b925050606085013567ffffffffffffffff811115612cef57612cee6126c6565b5b612cfb87828801612c56565b91505092959194509250565b600067ffffffffffffffff821115612d2257612d21612b59565b5b612d2b826127d5565b9050602081019050919050565b6000612d4b612d4684612d07565b612bb9565b905082815260208101848484011115612d6757612d66612b54565b5b612d72848285612c05565b509392505050565b600082601f830112612d8f57612d8e612b4f565b5b8135612d9f848260208601612d38565b91505092915050565b600080600060608486031215612dc157612dc06126c1565b5b6000612dcf86828701612917565b9350506020612de086828701612862565b925050604084013567ffffffffffffffff811115612e0157612e006126c6565b5b612e0d86828701612d7a565b9150509250925092565b60008060408385031215612e2e57612e2d6126c1565b5b6000612e3c85828601612917565b9250506020612e4d85828601612917565b9150509250929050565b7f4e487b7100000000000000000000000000000000000000000000000000000000600052602260045260246000fd5b60006002820490506001821680612e9e57607f821691505b60208210811415612eb257612eb1612e57565b5b50919050565b7f4552433732313a20617070726f76656420717565727920666f72206e6f6e657860008201527f697374656e7420746f6b656e0000000000000000000000000000000000000000602082015250565b6000612f14602c83612791565b9150612f1f82612eb8565b604082019050919050565b60006020820190508181036000830152612f4381612f07565b9050919050565b7f4552433732313a20617070726f76616c20746f2063757272656e74206f776e6560008201527f7200000000000000000000000000000000000000000000000000000000000000602082015250565b6000612fa6602183612791565b9150612fb182612f4a565b604082019050919050565b60006020820190508181036000830152612fd581612f99565b9050919050565b7f4552433732313a20617070726f76652063616c6c6572206973206e6f74206f7760008201527f6e6572206e6f7220617070726f76656420666f7220616c6c0000000000000000602082015250565b6000613038603883612791565b915061304382612fdc565b604082019050919050565b600060208201905081810360008301526130678161302b565b9050919050565b7f4552433732313a207472616e736665722063616c6c6572206973206e6f74206f60008201527f776e6572206e6f7220617070726f766564000000000000000000000000000000602082015250565b60006130ca603183612791565b91506130d58261306e565b604082019050919050565b600060208201905081810360008301526130f9816130bd565b9050919050565b7f416363657373436f6e74726f6c3a2063616e206f6e6c792072656e6f756e636560008201527f20726f6c657320666f722073656c660000000000000000000000000000000000602082015250565b600061315c602f83612791565b915061316782613100565b604082019050919050565b6000602082019050818103600083015261318b8161314f565b9050919050565b7f4552433732314275726e61626c653a2063616c6c6572206973206e6f74206f7760008201527f6e6572206e6f7220617070726f76656400000000000000000000000000000000602082015250565b60006131ee603083612791565b91506131f982613192565b604082019050919050565b6000602082019050818103600083015261321d816131e1565b9050919050565b7f4552433732313a206f776e657220717565727920666f72206e6f6e657869737460008201527f656e7420746f6b656e0000000000000000000000000000000000000000000000602082015250565b6000613280602983612791565b915061328b82613224565b604082019050919050565b600060208201905081810360008301526132af81613273565b9050919050565b7f4552433732313a2062616c616e636520717565727920666f7220746865207a6560008201527f726f206164647265737300000000000000000000000000000000000000000000602082015250565b6000613312602a83612791565b915061331d826132b6565b604082019050919050565b6000602082019050818103600083015261334181613305565b9050919050565b7f4552433732313a206f70657261746f7220717565727920666f72206e6f6e657860008201527f697374656e7420746f6b656e0000000000000000000000000000000000000000602082015250565b60006133a4602c83612791565b91506133af82613348565b604082019050919050565b600060208201905081810360008301526133d381613397565b9050919050565b7f4552433732313a207472616e736665722066726f6d20696e636f72726563742060008201527f6f776e6572000000000000000000000000000000000000000000000000000000602082015250565b6000613436602583612791565b9150613441826133da565b604082019050919050565b6000602082019050818103600083015261346581613429565b9050919050565b7f4552433732313a207472616e7366657220746f20746865207a65726f2061646460008201527f7265737300000000000000000000000000000000000000000000000000000000602082015250565b60006134c8602483612791565b91506134d38261346c565b604082019050919050565b600060208201905081810360008301526134f7816134bb565b9050919050565b7f4e487b7100000000000000000000000000000000000000000000000000000000600052601160045260246000fd5b600061353882612841565b915061354383612841565b925082821015613556576135556134fe565b5b828203905092915050565b600061356c82612841565b915061357783612841565b9250827fffffffffffffffffffffffffffffffffffffffffffffffffffffffffffffffff038211156135ac576135ab6134fe565b5b828201905092915050565b7f5061757361626c653a206e6f7420706175736564000000000000000000000000600082015250565b60006135ed601483612791565b91506135f8826135b7565b602082019050919050565b6000602082019050818103600083015261361c816135e0565b9050919050565b7f5061757361626c653a2070617573656400000000000000000000000000000000600082015250565b6000613659601083612791565b915061366482613623565b602082019050919050565b600060208201905081810360008301526136888161364c565b9050919050565b7f4552433732313a20617070726f766520746f2063616c6c657200000000000000600082015250565b60006136c5601983612791565b91506136d08261368f565b602082019050919050565b600060208201905081810360008301526136f4816136b8565b9050919050565b7f4552433732313a207472616e7366657220746f206e6f6e20455243373231526560008201527f63656976657220696d706c656d656e7465720000000000000000000000000000602082015250565b6000613757603283612791565b9150613762826136fb565b604082019050919050565b600060208201905081810360008301526137868161374a565b9050919050565b7f45524337323155524953746f726167653a2055524920717565727920666f722060008201527f6e6f6e6578697374656e7420746f6b656e000000000000000000000000000000602082015250565b60006137e9603183612791565b91506137f48261378d565b604082019050919050565b60006020820190508181036000830152613818816137dc565b9050919050565b600081905092915050565b600061383582612786565b61383f818561381f565b935061384f8185602086016127a2565b80840191505092915050565b6000613867828561382a565b9150613873828461382a565b91508190509392505050565b7f45524337323155524953746f726167653a2055524920736574206f66206e6f6e60008201527f6578697374656e7420746f6b656e000000000000000000000000000000000000602082015250565b60006138db602e83612791565b91506138e68261387f565b604082019050919050565b6000602082019050818103600083015261390a816138ce565b9050919050565b7f416363657373436f6e74726f6c3a206163636f756e7420000000000000000000600082015250565b600061394760178361381f565b915061395282613911565b601782019050919050565b7f206973206d697373696e6720726f6c6520000000000000000000000000000000600082015250565b600061399360118361381f565b915061399e8261395d565b601182019050919050565b60006139b48261393a565b91506139c0828561382a565b91506139cb82613986565b91506139d7828461382a565b91508190509392505050565b600081519050919050565b600082825260208201905092915050565b6000613a0a826139e3565b613a1481856139ee565b9350613a248185602086016127a2565b613a2d816127d5565b840191505092915050565b6000608082019050613a4d60008301876128d6565b613a5a60208301866128d6565b613a676040830185612ab9565b8181036060830152613a7981846139ff565b905095945050505050565b600081519050613a93816126f7565b92915050565b600060208284031215613aaf57613aae6126c1565b5b6000613abd84828501613a84565b91505092915050565b7f4552433732314d657461646174613a2055524920717565727920666f72206e6f60008201527f6e6578697374656e7420746f6b656e0000000000000000000000000000000000602082015250565b6000613b22602f83612791565b9150613b2d82613ac6565b604082019050919050565b60006020820190508181036000830152613b5181613b15565b9050919050565b6000613b6382612841565b9150613b6e83612841565b9250817fffffffffffffffffffffffffffffffffffffffffffffffffffffffffffffffff0483118215151615613ba757613ba66134fe565b5b828202905092915050565b7f4e487b7100000000000000000000000000000000000000000000000000000000600052603260045260246000fd5b6000613bec82612841565b91506000821415613c0057613bff6134fe565b5b600182039050919050565b7f537472696e67733a20686578206c656e67746820696e73756666696369656e74600082015250565b6000613c41602083612791565b9150613c4c82613c0b565b602082019050919050565b60006020820190508181036000830152613c7081613c34565b9050919050565b6000613c8282612841565b91507fffffffffffffffffffffffffffffffffffffffffffffffffffffffffffffffff821415613cb557613cb46134fe565b5b600182019050919050565b7f4e487b7100000000000000000000000000000000000000000000000000000000600052601260045260246000fd5b6000613cfa82612841565b9150613d0583612841565b925082613d1557613d14613cc0565b5b828204905092915050565b6000613d2b82612841565b9150613d3683612841565b925082613d4657613d45613cc0565b5b828206905092915050565b7f4552433732313a206d696e7420746f20746865207a65726f2061646472657373600082015250565b6000613d87602083612791565b9150613d9282613d51565b602082019050919050565b60006020820190508181036000830152613db681613d7a565b9050919050565b7f4552433732313a20746f6b656e20616c7265616479206d696e74656400000000600082015250565b6000613df3601c83612791565b9150613dfe82613dbd565b602082019050919050565b60006020820190508181036000830152613e2281613de6565b905091905056fea2646970667358221220df80e098a62d84c3109a373a2b06584b2af597877670732506c5f0264030c61764736f6c634300080a0033",
  "linkReferences": {},
  "deployedLinkReferences": {}
}