{
  "_format": "hh-sol-artifact-1",
  "contractName": "CoinvestNFT",
  "sourceName": "contracts/CoinveestNFT.sol",
  "abi": [
    {
      "inputs": [],
      "stateMutability": "nonpayable",
      "type": "constructor"
    },
    {
      "anonymous": false,
      "inputs": [
        {
          "indexed": true,
          "internalType": "address",
          "name": "owner",
          "type": "address"
        },
        {
          "indexed": true,
          "internalType": "address",
          "name": "approved",
          "type": "address"
        },
        {
          "indexed": true,
          "internalType": "uint256",
          "name": "tokenId",
          "type": "uint256"
        }
      ],
      "name": "Approval",
      "type": "event"
    },
    {
      "anonymous": false,
      "inputs": [
        {
          "indexed": true,
          "internalType": "address",
          "name": "owner",
          "type": "address"
        },
        {
          "indexed": true,
          "internalType": "address",
          "name": "operator",
          "type": "address"
        },
        {
          "indexed": false,
          "internalType": "bool",
          "name": "approved",
          "type": "bool"
        }
      ],
      "name": "ApprovalForAll",
      "type": "event"
    },
    {
      "anonymous": false,
      "inputs": [
        {
          "indexed": true,
          "internalType": "address",
          "name": "previousOwner",
          "type": "address"
        },
        {
          "indexed": true,
          "internalType": "address",
          "name": "newOwner",
          "type": "address"
        }
      ],
      "name": "OwnershipTransferred",
      "type": "event"
    },
    {
      "anonymous": false,
      "inputs": [
        {
          "indexed": false,
          "internalType": "address",
          "name": "account",
          "type": "address"
        }
      ],
      "name": "Paused",
      "type": "event"
    },
    {
      "anonymous": false,
      "inputs": [
        {
          "indexed": true,
          "internalType": "address",
          "name": "from",
          "type": "address"
        },
        {
          "indexed": true,
          "internalType": "address",
          "name": "to",
          "type": "address"
        },
        {
          "indexed": true,
          "internalType": "uint256",
          "name": "tokenId",
          "type": "uint256"
        }
      ],
      "name": "Transfer",
      "type": "event"
    },
    {
      "anonymous": false,
      "inputs": [
        {
          "indexed": false,
          "internalType": "address",
          "name": "account",
          "type": "address"
        }
      ],
      "name": "Unpaused",
      "type": "event"
    },
    {
      "inputs": [
        {
          "internalType": "address",
          "name": "newMinter",
          "type": "address"
        }
      ],
      "name": "addMinter",
      "outputs": [],
      "stateMutability": "nonpayable",
      "type": "function"
    },
    {
      "inputs": [
        {
          "internalType": "address",
          "name": "to",
          "type": "address"
        },
        {
          "internalType": "uint256",
          "name": "tokenId",
          "type": "uint256"
        }
      ],
      "name": "approve",
      "outputs": [],
      "stateMutability": "nonpayable",
      "type": "function"
    },
    {
      "inputs": [
        {
          "internalType": "address",
          "name": "owner",
          "type": "address"
        }
      ],
      "name": "balanceOf",
      "outputs": [
        {
          "internalType": "uint256",
          "name": "",
          "type": "uint256"
        }
      ],
      "stateMutability": "view",
      "type": "function"
    },
    {
      "inputs": [
        {
          "internalType": "uint256",
          "name": "tokenId",
          "type": "uint256"
        }
      ],
      "name": "burn",
      "outputs": [],
      "stateMutability": "nonpayable",
      "type": "function"
    },
    {
      "inputs": [
        {
          "internalType": "uint256",
          "name": "tokenId",
          "type": "uint256"
        }
      ],
      "name": "getApproved",
      "outputs": [
        {
          "internalType": "address",
          "name": "",
          "type": "address"
        }
      ],
      "stateMutability": "view",
      "type": "function"
    },
    {
      "inputs": [
        {
          "internalType": "address",
          "name": "owner",
          "type": "address"
        },
        {
          "internalType": "address",
          "name": "operator",
          "type": "address"
        }
      ],
      "name": "isApprovedForAll",
      "outputs": [
        {
          "internalType": "bool",
          "name": "",
          "type": "bool"
        }
      ],
      "stateMutability": "view",
      "type": "function"
    },
    {
      "inputs": [],
      "name": "name",
      "outputs": [
        {
          "internalType": "string",
          "name": "",
          "type": "string"
        }
      ],
      "stateMutability": "view",
      "type": "function"
    },
    {
      "inputs": [],
      "name": "owner",
      "outputs": [
        {
          "internalType": "address",
          "name": "",
          "type": "address"
        }
      ],
      "stateMutability": "view",
      "type": "function"
    },
    {
      "inputs": [
        {
          "internalType": "uint256",
          "name": "tokenId",
          "type": "uint256"
        }
      ],
      "name": "ownerOf",
      "outputs": [
        {
          "internalType": "address",
          "name": "",
          "type": "address"
        }
      ],
      "stateMutability": "view",
      "type": "function"
    },
    {
      "inputs": [],
      "name": "pause",
      "outputs": [],
      "stateMutability": "nonpayable",
      "type": "function"
    },
    {
      "inputs": [],
      "name": "paused",
      "outputs": [
        {
          "internalType": "bool",
          "name": "",
          "type": "bool"
        }
      ],
      "stateMutability": "view",
      "type": "function"
    },
    {
      "inputs": [],
      "name": "renounceOwnership",
      "outputs": [],
      "stateMutability": "nonpayable",
      "type": "function"
    },
    {
      "inputs": [
        {
          "internalType": "address",
          "name": "to",
          "type": "address"
        },
        {
          "internalType": "uint256",
          "name": "tokenId",
          "type": "uint256"
        },
        {
          "internalType": "string",
          "name": "uri",
          "type": "string"
        }
      ],
      "name": "safeMint",
      "outputs": [],
      "stateMutability": "nonpayable",
      "type": "function"
    },
    {
      "inputs": [
        {
          "internalType": "address",
          "name": "from",
          "type": "address"
        },
        {
          "internalType": "address",
          "name": "to",
          "type": "address"
        },
        {
          "internalType": "uint256",
          "name": "tokenId",
          "type": "uint256"
        }
      ],
      "name": "safeTransferFrom",
      "outputs": [],
      "stateMutability": "nonpayable",
      "type": "function"
    },
    {
      "inputs": [
        {
          "internalType": "address",
          "name": "from",
          "type": "address"
        },
        {
          "internalType": "address",
          "name": "to",
          "type": "address"
        },
        {
          "internalType": "uint256",
          "name": "tokenId",
          "type": "uint256"
        },
        {
          "internalType": "bytes",
          "name": "_data",
          "type": "bytes"
        }
      ],
      "name": "safeTransferFrom",
      "outputs": [],
      "stateMutability": "nonpayable",
      "type": "function"
    },
    {
      "inputs": [
        {
          "internalType": "address",
          "name": "operator",
          "type": "address"
        },
        {
          "internalType": "bool",
          "name": "approved",
          "type": "bool"
        }
      ],
      "name": "setApprovalForAll",
      "outputs": [],
      "stateMutability": "nonpayable",
      "type": "function"
    },
    {
      "inputs": [
        {
          "internalType": "bytes4",
          "name": "interfaceId",
          "type": "bytes4"
        }
      ],
      "name": "supportsInterface",
      "outputs": [
        {
          "internalType": "bool",
          "name": "",
          "type": "bool"
        }
      ],
      "stateMutability": "view",
      "type": "function"
    },
    {
      "inputs": [],
      "name": "symbol",
      "outputs": [
        {
          "internalType": "string",
          "name": "",
          "type": "string"
        }
      ],
      "stateMutability": "view",
      "type": "function"
    },
    {
      "inputs": [
        {
          "internalType": "uint256",
          "name": "tokenId",
          "type": "uint256"
        }
      ],
      "name": "tokenURI",
      "outputs": [
        {
          "internalType": "string",
          "name": "",
          "type": "string"
        }
      ],
      "stateMutability": "view",
      "type": "function"
    },
    {
      "inputs": [
        {
          "internalType": "address",
          "name": "from",
          "type": "address"
        },
        {
          "internalType": "address",
          "name": "to",
          "type": "address"
        },
        {
          "internalType": "uint256",
          "name": "tokenId",
          "type": "uint256"
        }
      ],
      "name": "transferFrom",
      "outputs": [],
      "stateMutability": "nonpayable",
      "type": "function"
    },
    {
      "inputs": [
        {
          "internalType": "address",
          "name": "newOwner",
          "type": "address"
        }
      ],
      "name": "transferOwnership",
      "outputs": [],
      "stateMutability": "nonpayable",
      "type": "function"
    },
    {
      "inputs": [],
      "name": "unpause",
      "outputs": [],
      "stateMutability": "nonpayable",
      "type": "function"
    }
  ],
  "bytecode": "0x60806040523480156200001157600080fd5b506040518060400160405280600b81526020017f436f696e766573744e46540000000000000000000000000000000000000000008152506040518060400160405280600481526020017f434e465400000000000000000000000000000000000000000000000000000000815250816000908051906020019062000096929190620001c1565b508060019080519060200190620000af929190620001c1565b5050506000600760006101000a81548160ff021916908315150217905550620000ed620000e1620000f360201b60201c565b620000fb60201b60201c565b620002d6565b600033905090565b6000600760019054906101000a900473ffffffffffffffffffffffffffffffffffffffff16905081600760016101000a81548173ffffffffffffffffffffffffffffffffffffffff021916908373ffffffffffffffffffffffffffffffffffffffff1602179055508173ffffffffffffffffffffffffffffffffffffffff168173ffffffffffffffffffffffffffffffffffffffff167f8be0079c531659141344cd1fd0a4f28419497f9722a3daafe3b4186f6b6457e060405160405180910390a35050565b828054620001cf90620002a0565b90600052602060002090601f016020900481019282620001f357600085556200023f565b82601f106200020e57805160ff19168380011785556200023f565b828001600101855582156200023f579182015b828111156200023e57825182559160200191906001019062000221565b5b5090506200024e919062000252565b5090565b5b808211156200026d57600081600090555060010162000253565b5090565b7f4e487b7100000000000000000000000000000000000000000000000000000000600052602260045260246000fd5b60006002820490506001821680620002b957607f821691505b60208210811415620002d057620002cf62000271565b5b50919050565b61387b80620002e66000396000f3fe608060405234801561001057600080fd5b50600436106101425760003560e01c8063715018a6116100b8578063a22cb4651161007c578063a22cb46514610329578063b88d4fde14610345578063c87b56dd14610361578063cd279c7c14610391578063e985e9c5146103ad578063f2fde38b146103dd57610142565b8063715018a6146102bd5780638456cb59146102c75780638da5cb5b146102d157806395d89b41146102ef578063983b2d561461030d57610142565b80633f4ba83a1161010a5780633f4ba83a146101fd57806342842e0e1461020757806342966c68146102235780635c975abb1461023f5780636352211e1461025d57806370a082311461028d57610142565b806301ffc9a71461014757806306fdde0314610177578063081812fc14610195578063095ea7b3146101c557806323b872dd146101e1575b600080fd5b610161600480360381019061015c91906122f6565b6103f9565b60405161016e919061233e565b60405180910390f35b61017f6104db565b60405161018c91906123f2565b60405180910390f35b6101af60048036038101906101aa919061244a565b61056d565b6040516101bc91906124b8565b60405180910390f35b6101df60048036038101906101da91906124ff565b6105f2565b005b6101fb60048036038101906101f6919061253f565b61070a565b005b61020561076a565b005b610221600480360381019061021c919061253f565b6107f0565b005b61023d6004803603810190610238919061244a565b610810565b005b61024761086c565b604051610254919061233e565b60405180910390f35b6102776004803603810190610272919061244a565b610883565b60405161028491906124b8565b60405180910390f35b6102a760048036038101906102a29190612592565b610935565b6040516102b491906125ce565b60405180910390f35b6102c56109ed565b005b6102cf610a75565b005b6102d9610afb565b6040516102e691906124b8565b60405180910390f35b6102f7610b25565b60405161030491906123f2565b60405180910390f35b61032760048036038101906103229190612592565b610bb7565b005b610343600480360381019061033e9190612615565b610c77565b005b61035f600480360381019061035a919061278a565b610c8d565b005b61037b6004803603810190610376919061244a565b610cef565b60405161038891906123f2565b60405180910390f35b6103ab60048036038101906103a691906128ae565b610d01565b005b6103c760048036038101906103c2919061291d565b610daa565b6040516103d4919061233e565b60405180910390f35b6103f760048036038101906103f29190612592565b610e3e565b005b60007f80ac58cd000000000000000000000000000000000000000000000000000000007bffffffffffffffffffffffffffffffffffffffffffffffffffffffff1916827bffffffffffffffffffffffffffffffffffffffffffffffffffffffff191614806104c457507f5b5e139f000000000000000000000000000000000000000000000000000000007bffffffffffffffffffffffffffffffffffffffffffffffffffffffff1916827bffffffffffffffffffffffffffffffffffffffffffffffffffffffff1916145b806104d457506104d382610f36565b5b9050919050565b6060600080546104ea9061298c565b80601f01602080910402602001604051908101604052809291908181526020018280546105169061298c565b80156105635780601f1061053857610100808354040283529160200191610563565b820191906000526020600020905b81548152906001019060200180831161054657829003601f168201915b5050505050905090565b600061057882610fa0565b6105b7576040517f08c379a00000000000000000000000000000000000000000000000000000000081526004016105ae90612a30565b60405180910390fd5b6004600083815260200190815260200160002060009054906101000a900473ffffffffffffffffffffffffffffffffffffffff169050919050565b60006105fd82610883565b90508073ffffffffffffffffffffffffffffffffffffffff168373ffffffffffffffffffffffffffffffffffffffff16141561066e576040517f08c379a000000000000000000000000000000000000000000000000000000000815260040161066590612ac2565b60405180910390fd5b8073ffffffffffffffffffffffffffffffffffffffff1661068d61100c565b73ffffffffffffffffffffffffffffffffffffffff1614806106bc57506106bb816106b661100c565b610daa565b5b6106fb576040517f08c379a00000000000000000000000000000000000000000000000000000000081526004016106f290612b54565b60405180910390fd5b6107058383611014565b505050565b61071b61071561100c565b826110cd565b61075a576040517f08c379a000000000000000000000000000000000000000000000000000000000815260040161075190612be6565b60405180910390fd5b6107658383836111ab565b505050565b61077261100c565b73ffffffffffffffffffffffffffffffffffffffff16610790610afb565b73ffffffffffffffffffffffffffffffffffffffff16146107e6576040517f08c379a00000000000000000000000000000000000000000000000000000000081526004016107dd90612c52565b60405180910390fd5b6107ee611412565b565b61080b83838360405180602001604052806000815250610c8d565b505050565b61082161081b61100c565b826110cd565b610860576040517f08c379a000000000000000000000000000000000000000000000000000000000815260040161085790612ce4565b60405180910390fd5b610869816114b4565b50565b6000600760009054906101000a900460ff16905090565b6000806002600084815260200190815260200160002060009054906101000a900473ffffffffffffffffffffffffffffffffffffffff169050600073ffffffffffffffffffffffffffffffffffffffff168173ffffffffffffffffffffffffffffffffffffffff16141561092c576040517f08c379a000000000000000000000000000000000000000000000000000000000815260040161092390612d76565b60405180910390fd5b80915050919050565b60008073ffffffffffffffffffffffffffffffffffffffff168273ffffffffffffffffffffffffffffffffffffffff1614156109a6576040517f08c379a000000000000000000000000000000000000000000000000000000000815260040161099d90612e08565b60405180910390fd5b600360008373ffffffffffffffffffffffffffffffffffffffff1673ffffffffffffffffffffffffffffffffffffffff168152602001908152602001600020549050919050565b6109f561100c565b73ffffffffffffffffffffffffffffffffffffffff16610a13610afb565b73ffffffffffffffffffffffffffffffffffffffff1614610a69576040517f08c379a0000000000000000000000000000000000000000000000000000000008152600401610a6090612c52565b60405180910390fd5b610a7360006114c0565b565b610a7d61100c565b73ffffffffffffffffffffffffffffffffffffffff16610a9b610afb565b73ffffffffffffffffffffffffffffffffffffffff1614610af1576040517f08c379a0000000000000000000000000000000000000000000000000000000008152600401610ae890612c52565b60405180910390fd5b610af9611586565b565b6000600760019054906101000a900473ffffffffffffffffffffffffffffffffffffffff16905090565b606060018054610b349061298c565b80601f0160208091040260200160405190810160405280929190818152602001828054610b609061298c565b8015610bad5780601f10610b8257610100808354040283529160200191610bad565b820191906000526020600020905b815481529060010190602001808311610b9057829003601f168201915b5050505050905090565b610bbf61100c565b73ffffffffffffffffffffffffffffffffffffffff16610bdd610afb565b73ffffffffffffffffffffffffffffffffffffffff1614610c33576040517f08c379a0000000000000000000000000000000000000000000000000000000008152600401610c2a90612c52565b60405180910390fd5b80600860006101000a81548173ffffffffffffffffffffffffffffffffffffffff021916908373ffffffffffffffffffffffffffffffffffffffff16021790555050565b610c89610c8261100c565b8383611629565b5050565b610c9e610c9861100c565b836110cd565b610cdd576040517f08c379a0000000000000000000000000000000000000000000000000000000008152600401610cd490612be6565b60405180910390fd5b610ce984848484611796565b50505050565b6060610cfa826117f2565b9050919050565b3373ffffffffffffffffffffffffffffffffffffffff16600860009054906101000a900473ffffffffffffffffffffffffffffffffffffffff1673ffffffffffffffffffffffffffffffffffffffff1614610d91576040517f08c379a0000000000000000000000000000000000000000000000000000000008152600401610d8890612e74565b60405180910390fd5b610d9b8383611944565b610da58282611962565b505050565b6000600560008473ffffffffffffffffffffffffffffffffffffffff1673ffffffffffffffffffffffffffffffffffffffff16815260200190815260200160002060008373ffffffffffffffffffffffffffffffffffffffff1673ffffffffffffffffffffffffffffffffffffffff16815260200190815260200160002060009054906101000a900460ff16905092915050565b610e4661100c565b73ffffffffffffffffffffffffffffffffffffffff16610e64610afb565b73ffffffffffffffffffffffffffffffffffffffff1614610eba576040517f08c379a0000000000000000000000000000000000000000000000000000000008152600401610eb190612c52565b60405180910390fd5b600073ffffffffffffffffffffffffffffffffffffffff168173ffffffffffffffffffffffffffffffffffffffff161415610f2a576040517f08c379a0000000000000000000000000000000000000000000000000000000008152600401610f2190612f06565b60405180910390fd5b610f33816114c0565b50565b60007f01ffc9a7000000000000000000000000000000000000000000000000000000007bffffffffffffffffffffffffffffffffffffffffffffffffffffffff1916827bffffffffffffffffffffffffffffffffffffffffffffffffffffffff1916149050919050565b60008073ffffffffffffffffffffffffffffffffffffffff166002600084815260200190815260200160002060009054906101000a900473ffffffffffffffffffffffffffffffffffffffff1673ffffffffffffffffffffffffffffffffffffffff1614159050919050565b600033905090565b816004600083815260200190815260200160002060006101000a81548173ffffffffffffffffffffffffffffffffffffffff021916908373ffffffffffffffffffffffffffffffffffffffff160217905550808273ffffffffffffffffffffffffffffffffffffffff1661108783610883565b73ffffffffffffffffffffffffffffffffffffffff167f8c5be1e5ebec7d5bd14f71427d1e84f3dd0314c0f7b2291e5b200ac8c7c3b92560405160405180910390a45050565b60006110d882610fa0565b611117576040517f08c379a000000000000000000000000000000000000000000000000000000000815260040161110e90612f98565b60405180910390fd5b600061112283610883565b90508073ffffffffffffffffffffffffffffffffffffffff168473ffffffffffffffffffffffffffffffffffffffff16148061116457506111638185610daa565b5b806111a257508373ffffffffffffffffffffffffffffffffffffffff1661118a8461056d565b73ffffffffffffffffffffffffffffffffffffffff16145b91505092915050565b8273ffffffffffffffffffffffffffffffffffffffff166111cb82610883565b73ffffffffffffffffffffffffffffffffffffffff1614611221576040517f08c379a00000000000000000000000000000000000000000000000000000000081526004016112189061302a565b60405180910390fd5b600073ffffffffffffffffffffffffffffffffffffffff168273ffffffffffffffffffffffffffffffffffffffff161415611291576040517f08c379a0000000000000000000000000000000000000000000000000000000008152600401611288906130bc565b60405180910390fd5b61129c8383836119d6565b6112a7600082611014565b6001600360008573ffffffffffffffffffffffffffffffffffffffff1673ffffffffffffffffffffffffffffffffffffffff16815260200190815260200160002060008282546112f7919061310b565b925050819055506001600360008473ffffffffffffffffffffffffffffffffffffffff1673ffffffffffffffffffffffffffffffffffffffff168152602001908152602001600020600082825461134e919061313f565b92505081905550816002600083815260200190815260200160002060006101000a81548173ffffffffffffffffffffffffffffffffffffffff021916908373ffffffffffffffffffffffffffffffffffffffff160217905550808273ffffffffffffffffffffffffffffffffffffffff168473ffffffffffffffffffffffffffffffffffffffff167fddf252ad1be2c89b69c2b068fc378daa952ba7f163c4a11628f55a4df523b3ef60405160405180910390a461140d838383611a2e565b505050565b61141a61086c565b611459576040517f08c379a0000000000000000000000000000000000000000000000000000000008152600401611450906131e1565b60405180910390fd5b6000600760006101000a81548160ff0219169083151502179055507f5db9ee0a495bf2e6ff9c91a7834c1ba4fdd244a5e8aa4e537bd38aeae4b073aa61149d61100c565b6040516114aa91906124b8565b60405180910390a1565b6114bd81611a33565b50565b6000600760019054906101000a900473ffffffffffffffffffffffffffffffffffffffff16905081600760016101000a81548173ffffffffffffffffffffffffffffffffffffffff021916908373ffffffffffffffffffffffffffffffffffffffff1602179055508173ffffffffffffffffffffffffffffffffffffffff168173ffffffffffffffffffffffffffffffffffffffff167f8be0079c531659141344cd1fd0a4f28419497f9722a3daafe3b4186f6b6457e060405160405180910390a35050565b61158e61086c565b156115ce576040517f08c379a00000000000000000000000000000000000000000000000000000000081526004016115c59061324d565b60405180910390fd5b6001600760006101000a81548160ff0219169083151502179055507f62e78cea01bee320cd4e420270b5ea74000d11b0c9f74754ebdbfc544b05a25861161261100c565b60405161161f91906124b8565b60405180910390a1565b8173ffffffffffffffffffffffffffffffffffffffff168373ffffffffffffffffffffffffffffffffffffffff161415611698576040517f08c379a000000000000000000000000000000000000000000000000000000000815260040161168f906132b9565b60405180910390fd5b80600560008573ffffffffffffffffffffffffffffffffffffffff1673ffffffffffffffffffffffffffffffffffffffff16815260200190815260200160002060008473ffffffffffffffffffffffffffffffffffffffff1673ffffffffffffffffffffffffffffffffffffffff16815260200190815260200160002060006101000a81548160ff0219169083151502179055508173ffffffffffffffffffffffffffffffffffffffff168373ffffffffffffffffffffffffffffffffffffffff167f17307eab39ab6107e8899845ad3d59bd9653f200f220920489ca2b5937696c3183604051611789919061233e565b60405180910390a3505050565b6117a18484846111ab565b6117ad84848484611a86565b6117ec576040517f08c379a00000000000000000000000000000000000000000000000000000000081526004016117e39061334b565b60405180910390fd5b50505050565b60606117fd82610fa0565b61183c576040517f08c379a0000000000000000000000000000000000000000000000000000000008152600401611833906133dd565b60405180910390fd5b600060066000848152602001908152602001600020805461185c9061298c565b80601f01602080910402602001604051908101604052809291908181526020018280546118889061298c565b80156118d55780601f106118aa576101008083540402835291602001916118d5565b820191906000526020600020905b8154815290600101906020018083116118b857829003601f168201915b5050505050905060006118e6611c0e565b90506000815114156118fc57819250505061193f565b600082511115611931578082604051602001611919929190613439565b6040516020818303038152906040529250505061193f565b61193a84611c25565b925050505b919050565b61195e828260405180602001604052806000815250611ccc565b5050565b61196b82610fa0565b6119aa576040517f08c379a00000000000000000000000000000000000000000000000000000000081526004016119a1906134cf565b60405180910390fd5b806006600084815260200190815260200160002090805190602001906119d19291906121a7565b505050565b6119de61086c565b15611a1e576040517f08c379a0000000000000000000000000000000000000000000000000000000008152600401611a159061324d565b60405180910390fd5b611a29838383611d27565b505050565b505050565b611a3c81611d2c565b6000600660008381526020019081526020016000208054611a5c9061298c565b905014611a8357600660008281526020019081526020016000206000611a82919061222d565b5b50565b6000611aa78473ffffffffffffffffffffffffffffffffffffffff16611e49565b15611c01578373ffffffffffffffffffffffffffffffffffffffff1663150b7a02611ad061100c565b8786866040518563ffffffff1660e01b8152600401611af29493929190613544565b6020604051808303816000875af1925050508015611b2e57506040513d601f19601f82011682018060405250810190611b2b91906135a5565b60015b611bb1573d8060008114611b5e576040519150601f19603f3d011682016040523d82523d6000602084013e611b63565b606091505b50600081511415611ba9576040517f08c379a0000000000000000000000000000000000000000000000000000000008152600401611ba09061334b565b60405180910390fd5b805181602001fd5b63150b7a0260e01b7bffffffffffffffffffffffffffffffffffffffffffffffffffffffff1916817bffffffffffffffffffffffffffffffffffffffffffffffffffffffff191614915050611c06565b600190505b949350505050565b606060405180602001604052806000815250905090565b6060611c3082610fa0565b611c6f576040517f08c379a0000000000000000000000000000000000000000000000000000000008152600401611c6690613644565b60405180910390fd5b6000611c79611c0e565b90506000815111611c995760405180602001604052806000815250611cc4565b80611ca384611e6c565b604051602001611cb4929190613439565b6040516020818303038152906040525b915050919050565b611cd68383611fcd565b611ce36000848484611a86565b611d22576040517f08c379a0000000000000000000000000000000000000000000000000000000008152600401611d199061334b565b60405180910390fd5b505050565b505050565b6000611d3782610883565b9050611d45816000846119d6565b611d50600083611014565b6001600360008373ffffffffffffffffffffffffffffffffffffffff1673ffffffffffffffffffffffffffffffffffffffff1681526020019081526020016000206000828254611da0919061310b565b925050819055506002600083815260200190815260200160002060006101000a81549073ffffffffffffffffffffffffffffffffffffffff021916905581600073ffffffffffffffffffffffffffffffffffffffff168273ffffffffffffffffffffffffffffffffffffffff167fddf252ad1be2c89b69c2b068fc378daa952ba7f163c4a11628f55a4df523b3ef60405160405180910390a4611e4581600084611a2e565b5050565b6000808273ffffffffffffffffffffffffffffffffffffffff163b119050919050565b60606000821415611eb4576040518060400160405280600181526020017f30000000000000000000000000000000000000000000000000000000000000008152509050611fc8565b600082905060005b60008214611ee6578080611ecf90613664565b915050600a82611edf91906136dc565b9150611ebc565b60008167ffffffffffffffff811115611f0257611f0161265f565b5b6040519080825280601f01601f191660200182016040528015611f345781602001600182028036833780820191505090505b5090505b60008514611fc157600182611f4d919061310b565b9150600a85611f5c919061370d565b6030611f68919061313f565b60f81b818381518110611f7e57611f7d61373e565b5b60200101907effffffffffffffffffffffffffffffffffffffffffffffffffffffffffffff1916908160001a905350600a85611fba91906136dc565b9450611f38565b8093505050505b919050565b600073ffffffffffffffffffffffffffffffffffffffff168273ffffffffffffffffffffffffffffffffffffffff16141561203d576040517f08c379a0000000000000000000000000000000000000000000000000000000008152600401612034906137b9565b60405180910390fd5b61204681610fa0565b15612086576040517f08c379a000000000000000000000000000000000000000000000000000000000815260040161207d90613825565b60405180910390fd5b612092600083836119d6565b6001600360008473ffffffffffffffffffffffffffffffffffffffff1673ffffffffffffffffffffffffffffffffffffffff16815260200190815260200160002060008282546120e2919061313f565b92505081905550816002600083815260200190815260200160002060006101000a81548173ffffffffffffffffffffffffffffffffffffffff021916908373ffffffffffffffffffffffffffffffffffffffff160217905550808273ffffffffffffffffffffffffffffffffffffffff16600073ffffffffffffffffffffffffffffffffffffffff167fddf252ad1be2c89b69c2b068fc378daa952ba7f163c4a11628f55a4df523b3ef60405160405180910390a46121a360008383611a2e565b5050565b8280546121b39061298c565b90600052602060002090601f0160209004810192826121d5576000855561221c565b82601f106121ee57805160ff191683800117855561221c565b8280016001018555821561221c579182015b8281111561221b578251825591602001919060010190612200565b5b509050612229919061226d565b5090565b5080546122399061298c565b6000825580601f1061224b575061226a565b601f016020900490600052602060002090810190612269919061226d565b5b50565b5b8082111561228657600081600090555060010161226e565b5090565b6000604051905090565b600080fd5b600080fd5b60007fffffffff0000000000000000000000000000000000000000000000000000000082169050919050565b6122d38161229e565b81146122de57600080fd5b50565b6000813590506122f0816122ca565b92915050565b60006020828403121561230c5761230b612294565b5b600061231a848285016122e1565b91505092915050565b60008115159050919050565b61233881612323565b82525050565b6000602082019050612353600083018461232f565b92915050565b600081519050919050565b600082825260208201905092915050565b60005b83811015612393578082015181840152602081019050612378565b838111156123a2576000848401525b50505050565b6000601f19601f8301169050919050565b60006123c482612359565b6123ce8185612364565b93506123de818560208601612375565b6123e7816123a8565b840191505092915050565b6000602082019050818103600083015261240c81846123b9565b905092915050565b6000819050919050565b61242781612414565b811461243257600080fd5b50565b6000813590506124448161241e565b92915050565b6000602082840312156124605761245f612294565b5b600061246e84828501612435565b91505092915050565b600073ffffffffffffffffffffffffffffffffffffffff82169050919050565b60006124a282612477565b9050919050565b6124b281612497565b82525050565b60006020820190506124cd60008301846124a9565b92915050565b6124dc81612497565b81146124e757600080fd5b50565b6000813590506124f9816124d3565b92915050565b6000806040838503121561251657612515612294565b5b6000612524858286016124ea565b925050602061253585828601612435565b9150509250929050565b60008060006060848603121561255857612557612294565b5b6000612566868287016124ea565b9350506020612577868287016124ea565b925050604061258886828701612435565b9150509250925092565b6000602082840312156125a8576125a7612294565b5b60006125b6848285016124ea565b91505092915050565b6125c881612414565b82525050565b60006020820190506125e360008301846125bf565b92915050565b6125f281612323565b81146125fd57600080fd5b50565b60008135905061260f816125e9565b92915050565b6000806040838503121561262c5761262b612294565b5b600061263a858286016124ea565b925050602061264b85828601612600565b9150509250929050565b600080fd5b600080fd5b7f4e487b7100000000000000000000000000000000000000000000000000000000600052604160045260246000fd5b612697826123a8565b810181811067ffffffffffffffff821117156126b6576126b561265f565b5b80604052505050565b60006126c961228a565b90506126d5828261268e565b919050565b600067ffffffffffffffff8211156126f5576126f461265f565b5b6126fe826123a8565b9050602081019050919050565b82818337600083830152505050565b600061272d612728846126da565b6126bf565b9050828152602081018484840111156127495761274861265a565b5b61275484828561270b565b509392505050565b600082601f83011261277157612770612655565b5b813561278184826020860161271a565b91505092915050565b600080600080608085870312156127a4576127a3612294565b5b60006127b2878288016124ea565b94505060206127c3878288016124ea565b93505060406127d487828801612435565b925050606085013567ffffffffffffffff8111156127f5576127f4612299565b5b6128018782880161275c565b91505092959194509250565b600067ffffffffffffffff8211156128285761282761265f565b5b612831826123a8565b9050602081019050919050565b600061285161284c8461280d565b6126bf565b90508281526020810184848401111561286d5761286c61265a565b5b61287884828561270b565b509392505050565b600082601f83011261289557612894612655565b5b81356128a584826020860161283e565b91505092915050565b6000806000606084860312156128c7576128c6612294565b5b60006128d5868287016124ea565b93505060206128e686828701612435565b925050604084013567ffffffffffffffff81111561290757612906612299565b5b61291386828701612880565b9150509250925092565b6000806040838503121561293457612933612294565b5b6000612942858286016124ea565b9250506020612953858286016124ea565b9150509250929050565b7f4e487b7100000000000000000000000000000000000000000000000000000000600052602260045260246000fd5b600060028204905060018216806129a457607f821691505b602082108114156129b8576129b761295d565b5b50919050565b7f4552433732313a20617070726f76656420717565727920666f72206e6f6e657860008201527f697374656e7420746f6b656e0000000000000000000000000000000000000000602082015250565b6000612a1a602c83612364565b9150612a25826129be565b604082019050919050565b60006020820190508181036000830152612a4981612a0d565b9050919050565b7f4552433732313a20617070726f76616c20746f2063757272656e74206f776e6560008201527f7200000000000000000000000000000000000000000000000000000000000000602082015250565b6000612aac602183612364565b9150612ab782612a50565b604082019050919050565b60006020820190508181036000830152612adb81612a9f565b9050919050565b7f4552433732313a20617070726f76652063616c6c6572206973206e6f74206f7760008201527f6e6572206e6f7220617070726f76656420666f7220616c6c0000000000000000602082015250565b6000612b3e603883612364565b9150612b4982612ae2565b604082019050919050565b60006020820190508181036000830152612b6d81612b31565b9050919050565b7f4552433732313a207472616e736665722063616c6c6572206973206e6f74206f60008201527f776e6572206e6f7220617070726f766564000000000000000000000000000000602082015250565b6000612bd0603183612364565b9150612bdb82612b74565b604082019050919050565b60006020820190508181036000830152612bff81612bc3565b9050919050565b7f4f776e61626c653a2063616c6c6572206973206e6f7420746865206f776e6572600082015250565b6000612c3c602083612364565b9150612c4782612c06565b602082019050919050565b60006020820190508181036000830152612c6b81612c2f565b9050919050565b7f4552433732314275726e61626c653a2063616c6c6572206973206e6f74206f7760008201527f6e6572206e6f7220617070726f76656400000000000000000000000000000000602082015250565b6000612cce603083612364565b9150612cd982612c72565b604082019050919050565b60006020820190508181036000830152612cfd81612cc1565b9050919050565b7f4552433732313a206f776e657220717565727920666f72206e6f6e657869737460008201527f656e7420746f6b656e0000000000000000000000000000000000000000000000602082015250565b6000612d60602983612364565b9150612d6b82612d04565b604082019050919050565b60006020820190508181036000830152612d8f81612d53565b9050919050565b7f4552433732313a2062616c616e636520717565727920666f7220746865207a6560008201527f726f206164647265737300000000000000000000000000000000000000000000602082015250565b6000612df2602a83612364565b9150612dfd82612d96565b604082019050919050565b60006020820190508181036000830152612e2181612de5565b9050919050565b7f4e6f74206d696e74657200000000000000000000000000000000000000000000600082015250565b6000612e5e600a83612364565b9150612e6982612e28565b602082019050919050565b60006020820190508181036000830152612e8d81612e51565b9050919050565b7f4f776e61626c653a206e6577206f776e657220697320746865207a65726f206160008201527f6464726573730000000000000000000000000000000000000000000000000000602082015250565b6000612ef0602683612364565b9150612efb82612e94565b604082019050919050565b60006020820190508181036000830152612f1f81612ee3565b9050919050565b7f4552433732313a206f70657261746f7220717565727920666f72206e6f6e657860008201527f697374656e7420746f6b656e0000000000000000000000000000000000000000602082015250565b6000612f82602c83612364565b9150612f8d82612f26565b604082019050919050565b60006020820190508181036000830152612fb181612f75565b9050919050565b7f4552433732313a207472616e736665722066726f6d20696e636f72726563742060008201527f6f776e6572000000000000000000000000000000000000000000000000000000602082015250565b6000613014602583612364565b915061301f82612fb8565b604082019050919050565b6000602082019050818103600083015261304381613007565b9050919050565b7f4552433732313a207472616e7366657220746f20746865207a65726f2061646460008201527f7265737300000000000000000000000000000000000000000000000000000000602082015250565b60006130a6602483612364565b91506130b18261304a565b604082019050919050565b600060208201905081810360008301526130d581613099565b9050919050565b7f4e487b7100000000000000000000000000000000000000000000000000000000600052601160045260246000fd5b600061311682612414565b915061312183612414565b925082821015613134576131336130dc565b5b828203905092915050565b600061314a82612414565b915061315583612414565b9250827fffffffffffffffffffffffffffffffffffffffffffffffffffffffffffffffff0382111561318a576131896130dc565b5b828201905092915050565b7f5061757361626c653a206e6f7420706175736564000000000000000000000000600082015250565b60006131cb601483612364565b91506131d682613195565b602082019050919050565b600060208201905081810360008301526131fa816131be565b9050919050565b7f5061757361626c653a2070617573656400000000000000000000000000000000600082015250565b6000613237601083612364565b915061324282613201565b602082019050919050565b600060208201905081810360008301526132668161322a565b9050919050565b7f4552433732313a20617070726f766520746f2063616c6c657200000000000000600082015250565b60006132a3601983612364565b91506132ae8261326d565b602082019050919050565b600060208201905081810360008301526132d281613296565b9050919050565b7f4552433732313a207472616e7366657220746f206e6f6e20455243373231526560008201527f63656976657220696d706c656d656e7465720000000000000000000000000000602082015250565b6000613335603283612364565b9150613340826132d9565b604082019050919050565b6000602082019050818103600083015261336481613328565b9050919050565b7f45524337323155524953746f726167653a2055524920717565727920666f722060008201527f6e6f6e6578697374656e7420746f6b656e000000000000000000000000000000602082015250565b60006133c7603183612364565b91506133d28261336b565b604082019050919050565b600060208201905081810360008301526133f6816133ba565b9050919050565b600081905092915050565b600061341382612359565b61341d81856133fd565b935061342d818560208601612375565b80840191505092915050565b60006134458285613408565b91506134518284613408565b91508190509392505050565b7f45524337323155524953746f726167653a2055524920736574206f66206e6f6e60008201527f6578697374656e7420746f6b656e000000000000000000000000000000000000602082015250565b60006134b9602e83612364565b91506134c48261345d565b604082019050919050565b600060208201905081810360008301526134e8816134ac565b9050919050565b600081519050919050565b600082825260208201905092915050565b6000613516826134ef565b61352081856134fa565b9350613530818560208601612375565b613539816123a8565b840191505092915050565b600060808201905061355960008301876124a9565b61356660208301866124a9565b61357360408301856125bf565b8181036060830152613585818461350b565b905095945050505050565b60008151905061359f816122ca565b92915050565b6000602082840312156135bb576135ba612294565b5b60006135c984828501613590565b91505092915050565b7f4552433732314d657461646174613a2055524920717565727920666f72206e6f60008201527f6e6578697374656e7420746f6b656e0000000000000000000000000000000000602082015250565b600061362e602f83612364565b9150613639826135d2565b604082019050919050565b6000602082019050818103600083015261365d81613621565b9050919050565b600061366f82612414565b91507fffffffffffffffffffffffffffffffffffffffffffffffffffffffffffffffff8214156136a2576136a16130dc565b5b600182019050919050565b7f4e487b7100000000000000000000000000000000000000000000000000000000600052601260045260246000fd5b60006136e782612414565b91506136f283612414565b925082613702576137016136ad565b5b828204905092915050565b600061371882612414565b915061372383612414565b925082613733576137326136ad565b5b828206905092915050565b7f4e487b7100000000000000000000000000000000000000000000000000000000600052603260045260246000fd5b7f4552433732313a206d696e7420746f20746865207a65726f2061646472657373600082015250565b60006137a3602083612364565b91506137ae8261376d565b602082019050919050565b600060208201905081810360008301526137d281613796565b9050919050565b7f4552433732313a20746f6b656e20616c7265616479206d696e74656400000000600082015250565b600061380f601c83612364565b915061381a826137d9565b602082019050919050565b6000602082019050818103600083015261383e81613802565b905091905056fea264697066735822122017c905813f99b9a3e433515c6278c44a7e3eebdf2c85ca0e4b8055db8622c6d764736f6c634300080a0033",
  "linkReferences": {},
  "deployedLinkReferences": {}
}