{
  "_format": "hh-sol-artifact-1",
  "contractName": "Investment",
  "sourceName": "contracts/Investment.sol",
  "abi": [
    {
      "anonymous": false,
      "inputs": [
        {
          "indexed": false,
          "internalType": "uint256",
          "name": "id",
          "type": "uint256"
        },
        {
          "indexed": false,
          "internalType": "string",
          "name": "name",
          "type": "string"
        },
        {
          "indexed": false,
          "internalType": "string",
          "name": "metadata",
          "type": "string"
        },
        {
          "indexed": false,
          "internalType": "address",
          "name": "investingToken",
          "type": "address"
        },
        {
          "indexed": false,
          "internalType": "uint256",
          "name": "created_at",
          "type": "uint256"
        },
        {
          "indexed": false,
          "internalType": "uint256",
          "name": "updated_at",
          "type": "uint256"
        },
        {
          "indexed": false,
          "internalType": "address",
          "name": "owner",
          "type": "address"
        },
        {
          "indexed": false,
          "internalType": "address",
          "name": "investingAccount",
          "type": "address"
        },
        {
          "indexed": false,
          "internalType": "enum Investment.InvestmentType",
          "name": "investmentType",
          "type": "uint8"
        },
        {
          "indexed": false,
          "internalType": "uint256",
          "name": "investmentAmount",
          "type": "uint256"
        },
        {
          "indexed": false,
          "internalType": "uint256",
          "name": "total_investment",
          "type": "uint256"
        },
        {
          "indexed": false,
          "internalType": "bool",
          "name": "reinvest",
          "type": "bool"
        }
      ],
      "name": "BasketCreated",
      "type": "event"
    },
    {
      "anonymous": false,
      "inputs": [
        {
          "indexed": false,
          "internalType": "uint256",
          "name": "id",
          "type": "uint256"
        },
        {
          "indexed": false,
          "internalType": "uint256",
          "name": "basketId",
          "type": "uint256"
        },
        {
          "indexed": false,
          "internalType": "uint256",
          "name": "sipAmount",
          "type": "uint256"
        },
        {
          "indexed": false,
          "internalType": "uint256",
          "name": "approvedAmount",
          "type": "uint256"
        },
        {
          "indexed": false,
          "internalType": "uint256",
          "name": "startDate",
          "type": "uint256"
        },
        {
          "indexed": false,
          "internalType": "uint256",
          "name": "endDate",
          "type": "uint256"
        }
      ],
      "name": "BasketSIPAdded",
      "type": "event"
    },
    {
      "anonymous": false,
      "inputs": [
        {
          "indexed": false,
          "internalType": "uint256",
          "name": "id",
          "type": "uint256"
        },
        {
          "indexed": false,
          "internalType": "uint256",
          "name": "basketId",
          "type": "uint256"
        },
        {
          "indexed": false,
          "internalType": "address",
          "name": "_address",
          "type": "address"
        },
        {
          "indexed": false,
          "internalType": "uint256",
          "name": "percentage",
          "type": "uint256"
        },
        {
          "indexed": false,
          "internalType": "address",
          "name": "priceFeedAddress",
          "type": "address"
        },
        {
          "indexed": false,
          "internalType": "uint256",
          "name": "amount",
          "type": "uint256"
        },
        {
          "indexed": false,
          "internalType": "uint256",
          "name": "investedAmount",
          "type": "uint256"
        }
      ],
      "name": "BasketTokenAdded",
      "type": "event"
    },
    {
      "anonymous": false,
      "inputs": [
        {
          "indexed": false,
          "internalType": "uint256",
          "name": "id",
          "type": "uint256"
        },
        {
          "indexed": false,
          "internalType": "uint256",
          "name": "basketId",
          "type": "uint256"
        },
        {
          "indexed": false,
          "internalType": "address",
          "name": "_address",
          "type": "address"
        },
        {
          "indexed": false,
          "internalType": "uint256",
          "name": "percentage",
          "type": "uint256"
        },
        {
          "indexed": false,
          "internalType": "address",
          "name": "priceFeedAddress",
          "type": "address"
        },
        {
          "indexed": false,
          "internalType": "uint256",
          "name": "amount",
          "type": "uint256"
        },
        {
          "indexed": false,
          "internalType": "uint256",
          "name": "investedAmount",
          "type": "uint256"
        }
      ],
      "name": "BasketTokenUpdated",
      "type": "event"
    },
    {
      "anonymous": false,
      "inputs": [
        {
          "indexed": false,
          "internalType": "uint256",
          "name": "basketId",
          "type": "uint256"
        },
        {
          "indexed": false,
          "internalType": "uint256",
          "name": "amount",
          "type": "uint256"
        },
        {
          "indexed": false,
          "internalType": "uint256",
          "name": "date",
          "type": "uint256"
        }
      ],
      "name": "InvestmentMade",
      "type": "event"
    },
    {
      "anonymous": false,
      "inputs": [
        {
          "indexed": true,
          "internalType": "address",
          "name": "previousOwner",
          "type": "address"
        },
        {
          "indexed": true,
          "internalType": "address",
          "name": "newOwner",
          "type": "address"
        }
      ],
      "name": "OwnershipTransferred",
      "type": "event"
    },
    {
      "inputs": [],
      "name": "WMATIC",
      "outputs": [
        {
          "internalType": "address",
          "name": "",
          "type": "address"
        }
      ],
      "stateMutability": "view",
      "type": "function"
    },
    {
      "inputs": [
        {
          "internalType": "uint256",
          "name": "amount",
          "type": "uint256"
        }
      ],
      "name": "calculateFee",
      "outputs": [
        {
          "internalType": "uint256",
          "name": "",
          "type": "uint256"
        }
      ],
      "stateMutability": "view",
      "type": "function"
    },
    {
      "inputs": [
        {
          "internalType": "string",
          "name": "name",
          "type": "string"
        },
        {
          "internalType": "string",
          "name": "metadata",
          "type": "string"
        },
        {
          "internalType": "address[]",
          "name": "tokens",
          "type": "address[]"
        },
        {
          "internalType": "uint256[]",
          "name": "tokenPercentages",
          "type": "uint256[]"
        },
        {
          "internalType": "address[]",
          "name": "priceFeedAddress",
          "type": "address[]"
        },
        {
          "internalType": "address",
          "name": "investingToken",
          "type": "address"
        },
        {
          "internalType": "address",
          "name": "investingAccount",
          "type": "address"
        }
      ],
      "name": "createBasket",
      "outputs": [],
      "stateMutability": "nonpayable",
      "type": "function"
    },
    {
      "inputs": [
        {
          "internalType": "uint256",
          "name": "basketId",
          "type": "uint256"
        },
        {
          "internalType": "uint256",
          "name": "sipAmount",
          "type": "uint256"
        },
        {
          "internalType": "uint256",
          "name": "approvedAmount",
          "type": "uint256"
        },
        {
          "internalType": "uint256",
          "name": "startDate",
          "type": "uint256"
        },
        {
          "internalType": "uint256",
          "name": "endDate",
          "type": "uint256"
        }
      ],
      "name": "createSIPforBasket",
      "outputs": [],
      "stateMutability": "nonpayable",
      "type": "function"
    },
    {
      "inputs": [],
      "name": "fee",
      "outputs": [
        {
          "internalType": "uint256",
          "name": "",
          "type": "uint256"
        }
      ],
      "stateMutability": "view",
      "type": "function"
    },
    {
      "inputs": [
        {
          "internalType": "uint256",
          "name": "basketId",
          "type": "uint256"
        },
        {
          "internalType": "uint256",
          "name": "amount",
          "type": "uint256"
        }
      ],
      "name": "investInBasket",
      "outputs": [],
      "stateMutability": "nonpayable",
      "type": "function"
    },
    {
      "inputs": [],
      "name": "owner",
      "outputs": [
        {
          "internalType": "address",
          "name": "",
          "type": "address"
        }
      ],
      "stateMutability": "view",
      "type": "function"
    },
    {
      "inputs": [],
      "name": "poolFee",
      "outputs": [
        {
          "internalType": "uint24",
          "name": "",
          "type": "uint24"
        }
      ],
      "stateMutability": "view",
      "type": "function"
    },
    {
      "inputs": [],
      "name": "renounceOwnership",
      "outputs": [],
      "stateMutability": "nonpayable",
      "type": "function"
    },
    {
      "inputs": [],
      "name": "swapRouter",
      "outputs": [
        {
          "internalType": "contract ISwapRouter",
          "name": "",
          "type": "address"
        }
      ],
      "stateMutability": "view",
      "type": "function"
    },
    {
      "inputs": [
        {
          "internalType": "address",
          "name": "newOwner",
          "type": "address"
        }
      ],
      "name": "transferOwnership",
      "outputs": [],
      "stateMutability": "nonpayable",
      "type": "function"
    },
    {
      "stateMutability": "payable",
      "type": "receive"
    }
  ],
  "bytecode": "0x60a060405260056068557368b3465833fb72a70ecdf485e0e4c7bd8665fc4573ffffffffffffffffffffffffffffffffffffffff1660809073ffffffffffffffffffffffffffffffffffffffff1681525034801561005c57600080fd5b506080516125b8610086600039600081816104080152818161053c0152610edb01526125b86000f3fe6080604052600436106100a05760003560e01c80638da5cb5b116100645780638da5cb5b1461016b57806399a5d74714610196578063bbfef748146101d3578063c31c9c07146101fc578063ddca3f4314610227578063f2fde38b14610252576100a7565b8063089fe6aa146100ac5780631059d272146100d757806332f253ec146101005780634d95cad914610129578063715018a614610154576100a7565b366100a757005b600080fd5b3480156100b857600080fd5b506100c161027b565b6040516100ce919061141d565b60405180910390f35b3480156100e357600080fd5b506100fe60048036038101906100f99190611482565b610281565b005b34801561010c57600080fd5b50610127600480360381019061012291906114c2565b610714565b005b34801561013557600080fd5b5061013e6108bb565b60405161014b919061157e565b60405180910390f35b34801561016057600080fd5b506101696108d3565b005b34801561017757600080fd5b5061018061095b565b60405161018d919061157e565b60405180910390f35b3480156101a257600080fd5b506101bd60048036038101906101b89190611599565b610985565b6040516101ca91906115d5565b60405180910390f35b3480156101df57600080fd5b506101fa60048036038101906101f591906118ed565b6109a9565b005b34801561020857600080fd5b50610211610ed9565b60405161021e9190611a7a565b60405180910390f35b34801561023357600080fd5b5061023c610efd565b60405161024991906115d5565b60405180910390f35b34801561025e57600080fd5b5061027960048036038101906102749190611a95565b610f03565b005b610bb881565b60006069600084815260200190815260200160002090508060060160009054906101000a900473ffffffffffffffffffffffffffffffffffffffff1673ffffffffffffffffffffffffffffffffffffffff163373ffffffffffffffffffffffffffffffffffffffff161461032a576040517f08c379a000000000000000000000000000000000000000000000000000000000815260040161032190611b1f565b60405180910390fd5b60005b606a6000858152602001908152602001600020805490508110156106b8576000606a6000868152602001908152602001600020828154811061037257610371611b3f565b5b9060005260206000209060060201905060006103e88260020154866103979190611b9d565b6103a19190611c26565b856103ac9190611c57565b90506103de8460030160009054906101000a900473ffffffffffffffffffffffffffffffffffffffff16333088610ffb565b61042d8460030160009054906101000a900473ffffffffffffffffffffffffffffffffffffffff167f000000000000000000000000000000000000000000000000000000000000000087611134565b60006040518061010001604052808660030160009054906101000a900473ffffffffffffffffffffffffffffffffffffffff1673ffffffffffffffffffffffffffffffffffffffff1681526020018460010160009054906101000a900473ffffffffffffffffffffffffffffffffffffffff1673ffffffffffffffffffffffffffffffffffffffff168152602001610bb862ffffff1681526020018660070160009054906101000a900473ffffffffffffffffffffffffffffffffffffffff1673ffffffffffffffffffffffffffffffffffffffff16815260200142815260200183815260200160008152602001600073ffffffffffffffffffffffffffffffffffffffff16815250905060007f000000000000000000000000000000000000000000000000000000000000000073ffffffffffffffffffffffffffffffffffffffff1663414bf389836040518263ffffffff1660e01b81526004016105939190611d69565b6020604051808303816000875af11580156105b2573d6000803e3d6000fd5b505050506040513d601f19601f820116820180604052508101906105d69190611d9a565b9050808460040160008282546105ec9190611dc7565b92505081905550828460050160008282546106079190611dc7565b925050819055507fe6ee6e7d8dcd0335f54e363c8c73cbb2c3df61f5d96e17b4072db73221779dbc8460000154898660010160009054906101000a900473ffffffffffffffffffffffffffffffffffffffff1687600201548860030160009054906101000a900473ffffffffffffffffffffffffffffffffffffffff1686896040516106999796959493929190611e1d565b60405180910390a15050505080806106b090611e8c565b91505061032d565b50818160090160008282546106cd9190611dc7565b925050819055507f9ab4efbe026535681f61d4ffcdc260d2b8cc96bd7944d9e01245e1218dc3ad3f83834260405161070793929190611ed5565b60405180910390a1505050565b60006069600087815260200190815260200160002090508060060160009054906101000a900473ffffffffffffffffffffffffffffffffffffffff1673ffffffffffffffffffffffffffffffffffffffff163373ffffffffffffffffffffffffffffffffffffffff16146107bd576040517f08c379a00000000000000000000000000000000000000000000000000000000081526004016107b490611b1f565b60405180910390fd5b60008160070160146101000a81548160ff021916908360018111156107e5576107e4611f0c565b5b02179055506107f4606761126a565b60006108006065611280565b90506040518060a0016040528082815260200187815260200186815260200185815260200184815250606b600089815260200190815260200160002060008201518160000155602082015181600101556040820151816002015560608201518160030155608082015181600401559050507f1927220bd73d00b1c69f5d4c4f79e39ccae257a2531e02fd4c9c93247528c17b8188888888886040516108aa96959493929190611f3b565b60405180910390a150505050505050565b73c02aaa39b223fe8d0a0e5c4f27ead9083c756cc281565b6108db61128e565b73ffffffffffffffffffffffffffffffffffffffff166108f961095b565b73ffffffffffffffffffffffffffffffffffffffff161461094f576040517f08c379a000000000000000000000000000000000000000000000000000000000815260040161094690611fe8565b60405180910390fd5b6109596000611296565b565b6000603360009054906101000a900473ffffffffffffffffffffffffffffffffffffffff16905090565b6000612710606854836109989190611b9d565b6109a29190611c26565b9050919050565b6109b3606561126a565b60006109bf6065611280565b90506040518061018001604052808281526020018981526020018881526020018473ffffffffffffffffffffffffffffffffffffffff1681526020014281526020014281526020013373ffffffffffffffffffffffffffffffffffffffff1681526020018373ffffffffffffffffffffffffffffffffffffffff168152602001600180811115610a5257610a51611f0c565b5b815260200160008152602001600081526020016000151581525060696000838152602001908152602001600020600082015181600001556020820151816001019080519060200190610aa592919061135c565b506040820151816002019080519060200190610ac292919061135c565b5060608201518160030160006101000a81548173ffffffffffffffffffffffffffffffffffffffff021916908373ffffffffffffffffffffffffffffffffffffffff1602179055506080820151816004015560a0820151816005015560c08201518160060160006101000a81548173ffffffffffffffffffffffffffffffffffffffff021916908373ffffffffffffffffffffffffffffffffffffffff16021790555060e08201518160070160006101000a81548173ffffffffffffffffffffffffffffffffffffffff021916908373ffffffffffffffffffffffffffffffffffffffff1602179055506101008201518160070160146101000a81548160ff02191690836001811115610bd857610bd7611f0c565b5b02179055506101208201518160080155610140820151816009015561016082015181600a0160006101000a81548160ff0219169083151502179055509050507f843266a2c4e2f5007caaeee93c4aafdf40d460a94a85c5ea087e300494a78c65818989864242338960016000806000604051610c5f9c9b9a9998979695949392919061211d565b60405180910390a160005b8651811015610ece57610c7d606661126a565b6000610c896066611280565b9050606a60008481526020019081526020016000206040518060c001604052808381526020018a8581518110610cc257610cc1611b3f565b5b602002602001015173ffffffffffffffffffffffffffffffffffffffff168152602001898581518110610cf857610cf7611b3f565b5b60200260200101518152602001888581518110610d1857610d17611b3f565b5b602002602001015173ffffffffffffffffffffffffffffffffffffffff16815260200160008152602001600081525090806001815401808255809150506001900390600052602060002090600602016000909190919091506000820151816000015560208201518160010160006101000a81548173ffffffffffffffffffffffffffffffffffffffff021916908373ffffffffffffffffffffffffffffffffffffffff1602179055506040820151816002015560608201518160030160006101000a81548173ffffffffffffffffffffffffffffffffffffffff021916908373ffffffffffffffffffffffffffffffffffffffff1602179055506080820151816004015560a0820151816005015550507ff48082c1a34355ab93ace86e7957d912c7875e08f7b0363d618a17a73147d52c81848a8581518110610e5e57610e5d611b3f565b5b60200260200101518a8681518110610e7957610e78611b3f565b5b60200260200101518a8781518110610e9457610e93611b3f565b5b6020026020010151600080604051610eb297969594939291906121e5565b60405180910390a1508080610ec690611e8c565b915050610c6a565b505050505050505050565b7f000000000000000000000000000000000000000000000000000000000000000081565b60685481565b610f0b61128e565b73ffffffffffffffffffffffffffffffffffffffff16610f2961095b565b73ffffffffffffffffffffffffffffffffffffffff1614610f7f576040517f08c379a0000000000000000000000000000000000000000000000000000000008152600401610f7690611fe8565b60405180910390fd5b600073ffffffffffffffffffffffffffffffffffffffff168173ffffffffffffffffffffffffffffffffffffffff161415610fef576040517f08c379a0000000000000000000000000000000000000000000000000000000008152600401610fe6906122c6565b60405180910390fd5b610ff881611296565b50565b6000808573ffffffffffffffffffffffffffffffffffffffff166323b872dd86868660405160240161102f939291906122e6565b6040516020818303038152906040529060e01b6020820180517bffffffffffffffffffffffffffffffffffffffffffffffffffffffff838183161783525050505060405161107d9190612364565b6000604051808303816000865af19150503d80600081146110ba576040519150601f19603f3d011682016040523d82523d6000602084013e6110bf565b606091505b50915091508180156110ed57506000815114806110ec5750808060200190518101906110eb91906123a7565b5b5b61112c576040517f08c379a000000000000000000000000000000000000000000000000000000000815260040161112390612446565b60405180910390fd5b505050505050565b6000808473ffffffffffffffffffffffffffffffffffffffff1663095ea7b38585604051602401611166929190612466565b6040516020818303038152906040529060e01b6020820180517bffffffffffffffffffffffffffffffffffffffffffffffffffffffff83818316178352505050506040516111b49190612364565b6000604051808303816000865af19150503d80600081146111f1576040519150601f19603f3d011682016040523d82523d6000602084013e6111f6565b606091505b5091509150818015611224575060008151148061122357508080602001905181019061122291906123a7565b5b5b611263576040517f08c379a000000000000000000000000000000000000000000000000000000000815260040161125a90612501565b60405180910390fd5b5050505050565b6001816000016000828254019250508190555050565b600081600001549050919050565b600033905090565b6000603360009054906101000a900473ffffffffffffffffffffffffffffffffffffffff16905081603360006101000a81548173ffffffffffffffffffffffffffffffffffffffff021916908373ffffffffffffffffffffffffffffffffffffffff1602179055508173ffffffffffffffffffffffffffffffffffffffff168173ffffffffffffffffffffffffffffffffffffffff167f8be0079c531659141344cd1fd0a4f28419497f9722a3daafe3b4186f6b6457e060405160405180910390a35050565b82805461136890612550565b90600052602060002090601f01602090048101928261138a57600085556113d1565b82601f106113a357805160ff19168380011785556113d1565b828001600101855582156113d1579182015b828111156113d05782518255916020019190600101906113b5565b5b5090506113de91906113e2565b5090565b5b808211156113fb5760008160009055506001016113e3565b5090565b600062ffffff82169050919050565b611417816113ff565b82525050565b6000602082019050611432600083018461140e565b92915050565b6000604051905090565b600080fd5b600080fd5b6000819050919050565b61145f8161144c565b811461146a57600080fd5b50565b60008135905061147c81611456565b92915050565b6000806040838503121561149957611498611442565b5b60006114a78582860161146d565b92505060206114b88582860161146d565b9150509250929050565b600080600080600060a086880312156114de576114dd611442565b5b60006114ec8882890161146d565b95505060206114fd8882890161146d565b945050604061150e8882890161146d565b935050606061151f8882890161146d565b92505060806115308882890161146d565b9150509295509295909350565b600073ffffffffffffffffffffffffffffffffffffffff82169050919050565b60006115688261153d565b9050919050565b6115788161155d565b82525050565b6000602082019050611593600083018461156f565b92915050565b6000602082840312156115af576115ae611442565b5b60006115bd8482850161146d565b91505092915050565b6115cf8161144c565b82525050565b60006020820190506115ea60008301846115c6565b92915050565b600080fd5b600080fd5b6000601f19601f8301169050919050565b7f4e487b7100000000000000000000000000000000000000000000000000000000600052604160045260246000fd5b611643826115fa565b810181811067ffffffffffffffff821117156116625761166161160b565b5b80604052505050565b6000611675611438565b9050611681828261163a565b919050565b600067ffffffffffffffff8211156116a1576116a061160b565b5b6116aa826115fa565b9050602081019050919050565b82818337600083830152505050565b60006116d96116d484611686565b61166b565b9050828152602081018484840111156116f5576116f46115f5565b5b6117008482856116b7565b509392505050565b600082601f83011261171d5761171c6115f0565b5b813561172d8482602086016116c6565b91505092915050565b600067ffffffffffffffff8211156117515761175061160b565b5b602082029050602081019050919050565b600080fd5b6117708161155d565b811461177b57600080fd5b50565b60008135905061178d81611767565b92915050565b60006117a66117a184611736565b61166b565b905080838252602082019050602084028301858111156117c9576117c8611762565b5b835b818110156117f257806117de888261177e565b8452602084019350506020810190506117cb565b5050509392505050565b600082601f830112611811576118106115f0565b5b8135611821848260208601611793565b91505092915050565b600067ffffffffffffffff8211156118455761184461160b565b5b602082029050602081019050919050565b60006118696118648461182a565b61166b565b9050808382526020820190506020840283018581111561188c5761188b611762565b5b835b818110156118b557806118a1888261146d565b84526020840193505060208101905061188e565b5050509392505050565b600082601f8301126118d4576118d36115f0565b5b81356118e4848260208601611856565b91505092915050565b600080600080600080600060e0888a03121561190c5761190b611442565b5b600088013567ffffffffffffffff81111561192a57611929611447565b5b6119368a828b01611708565b975050602088013567ffffffffffffffff81111561195757611956611447565b5b6119638a828b01611708565b965050604088013567ffffffffffffffff81111561198457611983611447565b5b6119908a828b016117fc565b955050606088013567ffffffffffffffff8111156119b1576119b0611447565b5b6119bd8a828b016118bf565b945050608088013567ffffffffffffffff8111156119de576119dd611447565b5b6119ea8a828b016117fc565b93505060a06119fb8a828b0161177e565b92505060c0611a0c8a828b0161177e565b91505092959891949750929550565b6000819050919050565b6000611a40611a3b611a368461153d565b611a1b565b61153d565b9050919050565b6000611a5282611a25565b9050919050565b6000611a6482611a47565b9050919050565b611a7481611a59565b82525050565b6000602082019050611a8f6000830184611a6b565b92915050565b600060208284031215611aab57611aaa611442565b5b6000611ab98482850161177e565b91505092915050565b600082825260208201905092915050565b7f4e6f74204f776e65720000000000000000000000000000000000000000000000600082015250565b6000611b09600983611ac2565b9150611b1482611ad3565b602082019050919050565b60006020820190508181036000830152611b3881611afc565b9050919050565b7f4e487b7100000000000000000000000000000000000000000000000000000000600052603260045260246000fd5b7f4e487b7100000000000000000000000000000000000000000000000000000000600052601160045260246000fd5b6000611ba88261144c565b9150611bb38361144c565b9250817fffffffffffffffffffffffffffffffffffffffffffffffffffffffffffffffff0483118215151615611bec57611beb611b6e565b5b828202905092915050565b7f4e487b7100000000000000000000000000000000000000000000000000000000600052601260045260246000fd5b6000611c318261144c565b9150611c3c8361144c565b925082611c4c57611c4b611bf7565b5b828204905092915050565b6000611c628261144c565b9150611c6d8361144c565b925082821015611c8057611c7f611b6e565b5b828203905092915050565b611c948161155d565b82525050565b611ca3816113ff565b82525050565b611cb28161144c565b82525050565b611cc18161153d565b82525050565b61010082016000820151611cde6000850182611c8b565b506020820151611cf16020850182611c8b565b506040820151611d046040850182611c9a565b506060820151611d176060850182611c8b565b506080820151611d2a6080850182611ca9565b5060a0820151611d3d60a0850182611ca9565b5060c0820151611d5060c0850182611ca9565b5060e0820151611d6360e0850182611cb8565b50505050565b600061010082019050611d7f6000830184611cc7565b92915050565b600081519050611d9481611456565b92915050565b600060208284031215611db057611daf611442565b5b6000611dbe84828501611d85565b91505092915050565b6000611dd28261144c565b9150611ddd8361144c565b9250827fffffffffffffffffffffffffffffffffffffffffffffffffffffffffffffffff03821115611e1257611e11611b6e565b5b828201905092915050565b600060e082019050611e32600083018a6115c6565b611e3f60208301896115c6565b611e4c604083018861156f565b611e5960608301876115c6565b611e66608083018661156f565b611e7360a08301856115c6565b611e8060c08301846115c6565b98975050505050505050565b6000611e978261144c565b91507fffffffffffffffffffffffffffffffffffffffffffffffffffffffffffffffff821415611eca57611ec9611b6e565b5b600182019050919050565b6000606082019050611eea60008301866115c6565b611ef760208301856115c6565b611f0460408301846115c6565b949350505050565b7f4e487b7100000000000000000000000000000000000000000000000000000000600052602160045260246000fd5b600060c082019050611f5060008301896115c6565b611f5d60208301886115c6565b611f6a60408301876115c6565b611f7760608301866115c6565b611f8460808301856115c6565b611f9160a08301846115c6565b979650505050505050565b7f4f776e61626c653a2063616c6c6572206973206e6f7420746865206f776e6572600082015250565b6000611fd2602083611ac2565b9150611fdd82611f9c565b602082019050919050565b6000602082019050818103600083015261200181611fc5565b9050919050565b600081519050919050565b60005b83811015612031578082015181840152602081019050612016565b83811115612040576000848401525b50505050565b600061205182612008565b61205b8185611ac2565b935061206b818560208601612013565b612074816115fa565b840191505092915050565b600281106120905761208f611f0c565b5b50565b60008190506120a18261207f565b919050565b60006120b182612093565b9050919050565b6120c1816120a6565b82525050565b6000819050919050565b60006120ec6120e76120e2846120c7565b611a1b565b61144c565b9050919050565b6120fc816120d1565b82525050565b60008115159050919050565b61211781612102565b82525050565b600061018082019050612133600083018f6115c6565b8181036020830152612145818e612046565b90508181036040830152612159818d612046565b9050612168606083018c61156f565b612175608083018b6115c6565b61218260a083018a6115c6565b61218f60c083018961156f565b61219c60e083018861156f565b6121aa6101008301876120b8565b6121b86101208301866120f3565b6121c66101408301856120f3565b6121d461016083018461210e565b9d9c50505050505050505050505050565b600060e0820190506121fa600083018a6115c6565b61220760208301896115c6565b612214604083018861156f565b61222160608301876115c6565b61222e608083018661156f565b61223b60a08301856120f3565b61224860c08301846120f3565b98975050505050505050565b7f4f776e61626c653a206e6577206f776e657220697320746865207a65726f206160008201527f6464726573730000000000000000000000000000000000000000000000000000602082015250565b60006122b0602683611ac2565b91506122bb82612254565b604082019050919050565b600060208201905081810360008301526122df816122a3565b9050919050565b60006060820190506122fb600083018661156f565b612308602083018561156f565b61231560408301846115c6565b949350505050565b600081519050919050565b600081905092915050565b600061233e8261231d565b6123488185612328565b9350612358818560208601612013565b80840191505092915050565b60006123708284612333565b915081905092915050565b61238481612102565b811461238f57600080fd5b50565b6000815190506123a18161237b565b92915050565b6000602082840312156123bd576123bc611442565b5b60006123cb84828501612392565b91505092915050565b7f5472616e7366657248656c7065723a3a7472616e7366657246726f6d3a20747260008201527f616e7366657246726f6d206661696c6564000000000000000000000000000000602082015250565b6000612430603183611ac2565b915061243b826123d4565b604082019050919050565b6000602082019050818103600083015261245f81612423565b9050919050565b600060408201905061247b600083018561156f565b61248860208301846115c6565b9392505050565b7f5472616e7366657248656c7065723a3a73616665417070726f76653a2061707060008201527f726f7665206661696c6564000000000000000000000000000000000000000000602082015250565b60006124eb602b83611ac2565b91506124f68261248f565b604082019050919050565b6000602082019050818103600083015261251a816124de565b9050919050565b7f4e487b7100000000000000000000000000000000000000000000000000000000600052602260045260246000fd5b6000600282049050600182168061256857607f821691505b6020821081141561257c5761257b612521565b5b5091905056fea264697066735822122093ad6842e75a6c54e405bb4abac9aaf2f79ec198808da15c2825ada7a73ef12964736f6c634300080a0033",
  "linkReferences": {},
  "deployedLinkReferences": {}
}