{
  "_format": "hh-sol-artifact-1",
  "contractName": "Investment",
  "sourceName": "contracts/Investment.sol",
  "abi": [
    {
      "inputs": [
        {
          "internalType": "uint256",
          "name": "updateInterval",
          "type": "uint256"
        }
      ],
      "stateMutability": "nonpayable",
      "type": "constructor"
    },
    {
      "anonymous": false,
      "inputs": [
        {
          "indexed": false,
          "internalType": "uint256",
          "name": "id",
          "type": "uint256"
        },
        {
          "indexed": false,
          "internalType": "string",
          "name": "name",
          "type": "string"
        },
        {
          "indexed": false,
          "internalType": "string",
          "name": "metadata",
          "type": "string"
        },
        {
          "indexed": false,
          "internalType": "address",
          "name": "investingToken",
          "type": "address"
        },
        {
          "indexed": false,
          "internalType": "uint256",
          "name": "created_at",
          "type": "uint256"
        },
        {
          "indexed": false,
          "internalType": "uint256",
          "name": "updated_at",
          "type": "uint256"
        },
        {
          "indexed": false,
          "internalType": "address",
          "name": "owner",
          "type": "address"
        },
        {
          "indexed": false,
          "internalType": "address",
          "name": "investingAccount",
          "type": "address"
        },
        {
          "indexed": false,
          "internalType": "enum Investment.InvestmentType",
          "name": "investmentType",
          "type": "uint8"
        },
        {
          "indexed": false,
          "internalType": "uint256",
          "name": "investmentAmount",
          "type": "uint256"
        },
        {
          "indexed": false,
          "internalType": "uint256",
          "name": "total_investment",
          "type": "uint256"
        },
        {
          "indexed": false,
          "internalType": "bool",
          "name": "reinvest",
          "type": "bool"
        }
      ],
      "name": "BasketCreated",
      "type": "event"
    },
    {
      "anonymous": false,
      "inputs": [
        {
          "indexed": false,
          "internalType": "uint256",
          "name": "id",
          "type": "uint256"
        },
        {
          "indexed": false,
          "internalType": "uint256",
          "name": "basketId",
          "type": "uint256"
        },
        {
          "indexed": false,
          "internalType": "uint256",
          "name": "sipAmount",
          "type": "uint256"
        },
        {
          "indexed": false,
          "internalType": "uint256",
          "name": "approvedAmount",
          "type": "uint256"
        },
        {
          "indexed": false,
          "internalType": "uint256",
          "name": "startDate",
          "type": "uint256"
        },
        {
          "indexed": false,
          "internalType": "uint256",
          "name": "endDate",
          "type": "uint256"
        }
      ],
      "name": "BasketSIPAdded",
      "type": "event"
    },
    {
      "anonymous": false,
      "inputs": [
        {
          "indexed": false,
          "internalType": "uint256",
          "name": "id",
          "type": "uint256"
        },
        {
          "indexed": false,
          "internalType": "uint256",
          "name": "basketId",
          "type": "uint256"
        },
        {
          "indexed": false,
          "internalType": "address",
          "name": "_address",
          "type": "address"
        },
        {
          "indexed": false,
          "internalType": "uint256",
          "name": "percentage",
          "type": "uint256"
        },
        {
          "indexed": false,
          "internalType": "address",
          "name": "priceFeedAddress",
          "type": "address"
        },
        {
          "indexed": false,
          "internalType": "uint256",
          "name": "amount",
          "type": "uint256"
        },
        {
          "indexed": false,
          "internalType": "uint256",
          "name": "investedAmount",
          "type": "uint256"
        }
      ],
      "name": "BasketTokenAdded",
      "type": "event"
    },
    {
      "anonymous": false,
      "inputs": [
        {
          "indexed": false,
          "internalType": "uint256",
          "name": "id",
          "type": "uint256"
        },
        {
          "indexed": false,
          "internalType": "uint256",
          "name": "basketId",
          "type": "uint256"
        },
        {
          "indexed": false,
          "internalType": "address",
          "name": "_address",
          "type": "address"
        },
        {
          "indexed": false,
          "internalType": "uint256",
          "name": "percentage",
          "type": "uint256"
        },
        {
          "indexed": false,
          "internalType": "address",
          "name": "priceFeedAddress",
          "type": "address"
        },
        {
          "indexed": false,
          "internalType": "uint256",
          "name": "amount",
          "type": "uint256"
        },
        {
          "indexed": false,
          "internalType": "uint256",
          "name": "investedAmount",
          "type": "uint256"
        }
      ],
      "name": "BasketTokenUpdated",
      "type": "event"
    },
    {
      "anonymous": false,
      "inputs": [
        {
          "indexed": false,
          "internalType": "uint256",
          "name": "basketId",
          "type": "uint256"
        },
        {
          "indexed": false,
          "internalType": "uint256",
          "name": "amount",
          "type": "uint256"
        },
        {
          "indexed": false,
          "internalType": "uint256",
          "name": "date",
          "type": "uint256"
        }
      ],
      "name": "InvestmentMade",
      "type": "event"
    },
    {
      "anonymous": false,
      "inputs": [
        {
          "indexed": true,
          "internalType": "address",
          "name": "previousOwner",
          "type": "address"
        },
        {
          "indexed": true,
          "internalType": "address",
          "name": "newOwner",
          "type": "address"
        }
      ],
      "name": "OwnershipTransferred",
      "type": "event"
    },
    {
      "inputs": [],
      "name": "WMATIC",
      "outputs": [
        {
          "internalType": "address",
          "name": "",
          "type": "address"
        }
      ],
      "stateMutability": "view",
      "type": "function"
    },
    {
      "inputs": [
        {
          "internalType": "uint256",
          "name": "amount",
          "type": "uint256"
        }
      ],
      "name": "calculateFee",
      "outputs": [
        {
          "internalType": "uint256",
          "name": "",
          "type": "uint256"
        }
      ],
      "stateMutability": "view",
      "type": "function"
    },
    {
      "inputs": [
        {
          "internalType": "bytes",
          "name": "",
          "type": "bytes"
        }
      ],
      "name": "checkUpkeep",
      "outputs": [
        {
          "internalType": "bool",
          "name": "upkeepNeeded",
          "type": "bool"
        },
        {
          "internalType": "bytes",
          "name": "",
          "type": "bytes"
        }
      ],
      "stateMutability": "view",
      "type": "function"
    },
    {
      "inputs": [],
      "name": "counter",
      "outputs": [
        {
          "internalType": "uint256",
          "name": "",
          "type": "uint256"
        }
      ],
      "stateMutability": "view",
      "type": "function"
    },
    {
      "inputs": [
        {
          "internalType": "string",
          "name": "name",
          "type": "string"
        },
        {
          "internalType": "string",
          "name": "metadata",
          "type": "string"
        },
        {
          "internalType": "address[]",
          "name": "tokens",
          "type": "address[]"
        },
        {
          "internalType": "uint256[]",
          "name": "tokenPercentages",
          "type": "uint256[]"
        },
        {
          "internalType": "address[]",
          "name": "priceFeedAddress",
          "type": "address[]"
        },
        {
          "internalType": "address",
          "name": "investingToken",
          "type": "address"
        },
        {
          "internalType": "address",
          "name": "investingAccount",
          "type": "address"
        }
      ],
      "name": "createBasket",
      "outputs": [],
      "stateMutability": "nonpayable",
      "type": "function"
    },
    {
      "inputs": [
        {
          "internalType": "uint256",
          "name": "basketId",
          "type": "uint256"
        },
        {
          "internalType": "uint256",
          "name": "sipAmount",
          "type": "uint256"
        },
        {
          "internalType": "uint256",
          "name": "approvedAmount",
          "type": "uint256"
        },
        {
          "internalType": "uint256",
          "name": "startDate",
          "type": "uint256"
        },
        {
          "internalType": "uint256",
          "name": "endDate",
          "type": "uint256"
        }
      ],
      "name": "createSIPforBasket",
      "outputs": [],
      "stateMutability": "nonpayable",
      "type": "function"
    },
    {
      "inputs": [],
      "name": "fee",
      "outputs": [
        {
          "internalType": "uint256",
          "name": "",
          "type": "uint256"
        }
      ],
      "stateMutability": "view",
      "type": "function"
    },
    {
      "inputs": [],
      "name": "interval",
      "outputs": [
        {
          "internalType": "uint256",
          "name": "",
          "type": "uint256"
        }
      ],
      "stateMutability": "view",
      "type": "function"
    },
    {
      "inputs": [
        {
          "internalType": "uint256",
          "name": "basketId",
          "type": "uint256"
        },
        {
          "internalType": "uint256",
          "name": "amount",
          "type": "uint256"
        }
      ],
      "name": "investInBasket",
      "outputs": [],
      "stateMutability": "nonpayable",
      "type": "function"
    },
    {
      "inputs": [],
      "name": "lastTimeStamp",
      "outputs": [
        {
          "internalType": "uint256",
          "name": "",
          "type": "uint256"
        }
      ],
      "stateMutability": "view",
      "type": "function"
    },
    {
      "inputs": [],
      "name": "owner",
      "outputs": [
        {
          "internalType": "address",
          "name": "",
          "type": "address"
        }
      ],
      "stateMutability": "view",
      "type": "function"
    },
    {
      "inputs": [
        {
          "internalType": "bytes",
          "name": "",
          "type": "bytes"
        }
      ],
      "name": "performUpkeep",
      "outputs": [],
      "stateMutability": "nonpayable",
      "type": "function"
    },
    {
      "inputs": [],
      "name": "poolFee",
      "outputs": [
        {
          "internalType": "uint24",
          "name": "",
          "type": "uint24"
        }
      ],
      "stateMutability": "view",
      "type": "function"
    },
    {
      "inputs": [],
      "name": "renounceOwnership",
      "outputs": [],
      "stateMutability": "nonpayable",
      "type": "function"
    },
    {
      "inputs": [],
      "name": "swapRouter",
      "outputs": [
        {
          "internalType": "contract ISwapRouter",
          "name": "",
          "type": "address"
        }
      ],
      "stateMutability": "view",
      "type": "function"
    },
    {
      "inputs": [
        {
          "internalType": "address",
          "name": "newOwner",
          "type": "address"
        }
      ],
      "name": "transferOwnership",
      "outputs": [],
      "stateMutability": "nonpayable",
      "type": "function"
    },
    {
      "stateMutability": "payable",
      "type": "receive"
    }
  ],
  "bytecode": "0x60c060405260056068557368b3465833fb72a70ecdf485e0e4c7bd8665fc4573ffffffffffffffffffffffffffffffffffffffff1660809073ffffffffffffffffffffffffffffffffffffffff168152503480156200005d57600080fd5b5060405162002c8b38038062002c8b8339818101604052810190620000839190620000e1565b8060a0818152505042606a8190555060006069819055505062000113565b600080fd5b6000819050919050565b620000bb81620000a6565b8114620000c757600080fd5b50565b600081519050620000db81620000b0565b92915050565b600060208284031215620000fa57620000f9620000a1565b5b60006200010a84828501620000ca565b91505092915050565b60805160a051612b366200015560003960008181610a0201528181610aff0152610bea0152600081816105470152818161067b01526111620152612b366000f3fe6080604052600436106100f75760003560e01c8063715018a61161008a578063bbfef74811610059578063bbfef74814610312578063c31c9c071461033b578063ddca3f4314610366578063f2fde38b14610391576100fe565b8063715018a6146102685780638da5cb5b1461027f578063947a36fb146102aa57806399a5d747146102d5576100fe565b80634585e33b116100c65780634585e33b146101ab5780634d95cad9146101d457806361bc221a146101ff5780636e04ff0d1461022a576100fe565b8063089fe6aa146101035780631059d2721461012e57806332f253ec146101575780633f3b3b2714610180576100fe565b366100fe57005b600080fd5b34801561010f57600080fd5b506101186103ba565b604051610125919061180d565b60405180910390f35b34801561013a57600080fd5b5061015560048036038101906101509190611872565b6103c0565b005b34801561016357600080fd5b5061017e600480360381019061017991906118b2565b610853565b005b34801561018c57600080fd5b506101956109fa565b6040516101a2919061193c565b60405180910390f35b3480156101b757600080fd5b506101d260048036038101906101cd91906119bc565b610a00565b005b3480156101e057600080fd5b506101e9610adb565b6040516101f69190611a4a565b60405180910390f35b34801561020b57600080fd5b50610214610af3565b604051610221919061193c565b60405180910390f35b34801561023657600080fd5b50610251600480360381019061024c91906119bc565b610af9565b60405161025f929190611b19565b60405180910390f35b34801561027457600080fd5b5061027d610b36565b005b34801561028b57600080fd5b50610294610bbe565b6040516102a19190611a4a565b60405180910390f35b3480156102b657600080fd5b506102bf610be8565b6040516102cc919061193c565b60405180910390f35b3480156102e157600080fd5b506102fc60048036038101906102f79190611b49565b610c0c565b604051610309919061193c565b60405180910390f35b34801561031e57600080fd5b5061033960048036038101906103349190611e58565b610c30565b005b34801561034757600080fd5b50610350611160565b60405161035d9190611fe5565b60405180910390f35b34801561037257600080fd5b5061037b611184565b604051610388919061193c565b60405180910390f35b34801561039d57600080fd5b506103b860048036038101906103b39190612000565b61118a565b005b610bb881565b6000606b600084815260200190815260200160002090508060060160009054906101000a900473ffffffffffffffffffffffffffffffffffffffff1673ffffffffffffffffffffffffffffffffffffffff163373ffffffffffffffffffffffffffffffffffffffff1614610469576040517f08c379a00000000000000000000000000000000000000000000000000000000081526004016104609061208a565b60405180910390fd5b60005b606c6000858152602001908152602001600020805490508110156107f7576000606c600086815260200190815260200160002082815481106104b1576104b06120aa565b5b9060005260206000209060060201905060006103e88260020154866104d69190612108565b6104e09190612191565b856104eb91906121c2565b905061051d8460030160009054906101000a900473ffffffffffffffffffffffffffffffffffffffff16333088611282565b61056c8460030160009054906101000a900473ffffffffffffffffffffffffffffffffffffffff167f0000000000000000000000000000000000000000000000000000000000000000876113bb565b60006040518061010001604052808660030160009054906101000a900473ffffffffffffffffffffffffffffffffffffffff1673ffffffffffffffffffffffffffffffffffffffff1681526020018460010160009054906101000a900473ffffffffffffffffffffffffffffffffffffffff1673ffffffffffffffffffffffffffffffffffffffff168152602001610bb862ffffff1681526020018660070160009054906101000a900473ffffffffffffffffffffffffffffffffffffffff1673ffffffffffffffffffffffffffffffffffffffff16815260200142815260200183815260200160008152602001600073ffffffffffffffffffffffffffffffffffffffff16815250905060007f000000000000000000000000000000000000000000000000000000000000000073ffffffffffffffffffffffffffffffffffffffff1663414bf389836040518263ffffffff1660e01b81526004016106d291906122d4565b6020604051808303816000875af11580156106f1573d6000803e3d6000fd5b505050506040513d601f19601f820116820180604052508101906107159190612305565b90508084600401600082825461072b9190612332565b92505081905550828460050160008282546107469190612332565b925050819055507fe6ee6e7d8dcd0335f54e363c8c73cbb2c3df61f5d96e17b4072db73221779dbc8460000154898660010160009054906101000a900473ffffffffffffffffffffffffffffffffffffffff1687600201548860030160009054906101000a900473ffffffffffffffffffffffffffffffffffffffff1686896040516107d89796959493929190612388565b60405180910390a15050505080806107ef906123f7565b91505061046c565b508181600901600082825461080c9190612332565b925050819055507f9ab4efbe026535681f61d4ffcdc260d2b8cc96bd7944d9e01245e1218dc3ad3f83834260405161084693929190612440565b60405180910390a1505050565b6000606b600087815260200190815260200160002090508060060160009054906101000a900473ffffffffffffffffffffffffffffffffffffffff1673ffffffffffffffffffffffffffffffffffffffff163373ffffffffffffffffffffffffffffffffffffffff16146108fc576040517f08c379a00000000000000000000000000000000000000000000000000000000081526004016108f39061208a565b60405180910390fd5b60008160070160146101000a81548160ff0219169083600181111561092457610923612477565b5b021790555061093360676114f1565b600061093f6065611507565b90506040518060a0016040528082815260200187815260200186815260200185815260200184815250606d600089815260200190815260200160002060008201518160000155602082015181600101556040820151816002015560608201518160030155608082015181600401559050507f1927220bd73d00b1c69f5d4c4f79e39ccae257a2531e02fd4c9c93247528c17b8188888888886040516109e9969594939291906124a6565b60405180910390a150505050505050565b606a5481565b7f0000000000000000000000000000000000000000000000000000000000000000606a5442610a2f91906121c2565b1115610ad75742606a8190555060005b610a496065611507565b811015610ad55760006001811115610a6457610a63612477565b5b606b6000600184610a759190612332565b815260200190815260200160002060070160149054906101000a900460ff166001811115610aa657610aa5612477565b5b1415610ac257610ac1600182610abc9190612332565b611515565b5b8080610acd906123f7565b915050610a3f565b505b5050565b73c02aaa39b223fe8d0a0e5c4f27ead9083c756cc281565b60695481565b600060607f0000000000000000000000000000000000000000000000000000000000000000606a5442610b2c91906121c2565b1191509250929050565b610b3e61167e565b73ffffffffffffffffffffffffffffffffffffffff16610b5c610bbe565b73ffffffffffffffffffffffffffffffffffffffff1614610bb2576040517f08c379a0000000000000000000000000000000000000000000000000000000008152600401610ba990612553565b60405180910390fd5b610bbc6000611686565b565b6000603360009054906101000a900473ffffffffffffffffffffffffffffffffffffffff16905090565b7f000000000000000000000000000000000000000000000000000000000000000081565b600061271060685483610c1f9190612108565b610c299190612191565b9050919050565b610c3a60656114f1565b6000610c466065611507565b90506040518061018001604052808281526020018981526020018881526020018473ffffffffffffffffffffffffffffffffffffffff1681526020014281526020014281526020013373ffffffffffffffffffffffffffffffffffffffff1681526020018373ffffffffffffffffffffffffffffffffffffffff168152602001600180811115610cd957610cd8612477565b5b8152602001600081526020016000815260200160001515815250606b6000838152602001908152602001600020600082015181600001556020820151816001019080519060200190610d2c92919061174c565b506040820151816002019080519060200190610d4992919061174c565b5060608201518160030160006101000a81548173ffffffffffffffffffffffffffffffffffffffff021916908373ffffffffffffffffffffffffffffffffffffffff1602179055506080820151816004015560a0820151816005015560c08201518160060160006101000a81548173ffffffffffffffffffffffffffffffffffffffff021916908373ffffffffffffffffffffffffffffffffffffffff16021790555060e08201518160070160006101000a81548173ffffffffffffffffffffffffffffffffffffffff021916908373ffffffffffffffffffffffffffffffffffffffff1602179055506101008201518160070160146101000a81548160ff02191690836001811115610e5f57610e5e612477565b5b02179055506101208201518160080155610140820151816009015561016082015181600a0160006101000a81548160ff0219169083151502179055509050507f843266a2c4e2f5007caaeee93c4aafdf40d460a94a85c5ea087e300494a78c65818989864242338960016000806000604051610ee69c9b9a9998979695949392919061263a565b60405180910390a160005b865181101561115557610f0460666114f1565b6000610f106066611507565b9050606c60008481526020019081526020016000206040518060c001604052808381526020018a8581518110610f4957610f486120aa565b5b602002602001015173ffffffffffffffffffffffffffffffffffffffff168152602001898581518110610f7f57610f7e6120aa565b5b60200260200101518152602001888581518110610f9f57610f9e6120aa565b5b602002602001015173ffffffffffffffffffffffffffffffffffffffff16815260200160008152602001600081525090806001815401808255809150506001900390600052602060002090600602016000909190919091506000820151816000015560208201518160010160006101000a81548173ffffffffffffffffffffffffffffffffffffffff021916908373ffffffffffffffffffffffffffffffffffffffff1602179055506040820151816002015560608201518160030160006101000a81548173ffffffffffffffffffffffffffffffffffffffff021916908373ffffffffffffffffffffffffffffffffffffffff1602179055506080820151816004015560a0820151816005015550507ff48082c1a34355ab93ace86e7957d912c7875e08f7b0363d618a17a73147d52c81848a85815181106110e5576110e46120aa565b5b60200260200101518a8681518110611100576110ff6120aa565b5b60200260200101518a878151811061111b5761111a6120aa565b5b60200260200101516000806040516111399796959493929190612702565b60405180910390a150808061114d906123f7565b915050610ef1565b505050505050505050565b7f000000000000000000000000000000000000000000000000000000000000000081565b60685481565b61119261167e565b73ffffffffffffffffffffffffffffffffffffffff166111b0610bbe565b73ffffffffffffffffffffffffffffffffffffffff1614611206576040517f08c379a00000000000000000000000000000000000000000000000000000000081526004016111fd90612553565b60405180910390fd5b600073ffffffffffffffffffffffffffffffffffffffff168173ffffffffffffffffffffffffffffffffffffffff161415611276576040517f08c379a000000000000000000000000000000000000000000000000000000000815260040161126d906127e3565b60405180910390fd5b61127f81611686565b50565b6000808573ffffffffffffffffffffffffffffffffffffffff166323b872dd8686866040516024016112b693929190612803565b6040516020818303038152906040529060e01b6020820180517bffffffffffffffffffffffffffffffffffffffffffffffffffffffff83818316178352505050506040516113049190612876565b6000604051808303816000865af19150503d8060008114611341576040519150601f19603f3d011682016040523d82523d6000602084013e611346565b606091505b5091509150818015611374575060008151148061137357508080602001905181019061137291906128b9565b5b5b6113b3576040517f08c379a00000000000000000000000000000000000000000000000000000000081526004016113aa90612958565b60405180910390fd5b505050505050565b6000808473ffffffffffffffffffffffffffffffffffffffff1663095ea7b385856040516024016113ed929190612978565b6040516020818303038152906040529060e01b6020820180517bffffffffffffffffffffffffffffffffffffffffffffffffffffffff838183161783525050505060405161143b9190612876565b6000604051808303816000865af19150503d8060008114611478576040519150601f19603f3d011682016040523d82523d6000602084013e61147d565b606091505b50915091508180156114ab57506000815114806114aa5750808060200190518101906114a991906128b9565b5b5b6114ea576040517f08c379a00000000000000000000000000000000000000000000000000000000081526004016114e190612a13565b60405180910390fd5b5050505050565b6001816000016000828254019250508190555050565b600081600001549050919050565b6000606b600083815260200190815260200160002090508060060160009054906101000a900473ffffffffffffffffffffffffffffffffffffffff1673ffffffffffffffffffffffffffffffffffffffff163373ffffffffffffffffffffffffffffffffffffffff16146115be576040517f08c379a00000000000000000000000000000000000000000000000000000000081526004016115b59061208a565b60405180910390fd5b6000606d60008481526020019081526020016000206040518060a001604052908160008201548152602001600182015481526020016002820154815260200160038201548152602001600482015481525050905080602001518260090154826040015161162b91906121c2565b1161166b576040517f08c379a000000000000000000000000000000000000000000000000000000000815260040161166290612a7f565b60405180910390fd5b6116798382602001516103c0565b505050565b600033905090565b6000603360009054906101000a900473ffffffffffffffffffffffffffffffffffffffff16905081603360006101000a81548173ffffffffffffffffffffffffffffffffffffffff021916908373ffffffffffffffffffffffffffffffffffffffff1602179055508173ffffffffffffffffffffffffffffffffffffffff168173ffffffffffffffffffffffffffffffffffffffff167f8be0079c531659141344cd1fd0a4f28419497f9722a3daafe3b4186f6b6457e060405160405180910390a35050565b82805461175890612ace565b90600052602060002090601f01602090048101928261177a57600085556117c1565b82601f1061179357805160ff19168380011785556117c1565b828001600101855582156117c1579182015b828111156117c05782518255916020019190600101906117a5565b5b5090506117ce91906117d2565b5090565b5b808211156117eb5760008160009055506001016117d3565b5090565b600062ffffff82169050919050565b611807816117ef565b82525050565b600060208201905061182260008301846117fe565b92915050565b6000604051905090565b600080fd5b600080fd5b6000819050919050565b61184f8161183c565b811461185a57600080fd5b50565b60008135905061186c81611846565b92915050565b6000806040838503121561188957611888611832565b5b60006118978582860161185d565b92505060206118a88582860161185d565b9150509250929050565b600080600080600060a086880312156118ce576118cd611832565b5b60006118dc8882890161185d565b95505060206118ed8882890161185d565b94505060406118fe8882890161185d565b935050606061190f8882890161185d565b92505060806119208882890161185d565b9150509295509295909350565b6119368161183c565b82525050565b6000602082019050611951600083018461192d565b92915050565b600080fd5b600080fd5b600080fd5b60008083601f84011261197c5761197b611957565b5b8235905067ffffffffffffffff8111156119995761199861195c565b5b6020830191508360018202830111156119b5576119b4611961565b5b9250929050565b600080602083850312156119d3576119d2611832565b5b600083013567ffffffffffffffff8111156119f1576119f0611837565b5b6119fd85828601611966565b92509250509250929050565b600073ffffffffffffffffffffffffffffffffffffffff82169050919050565b6000611a3482611a09565b9050919050565b611a4481611a29565b82525050565b6000602082019050611a5f6000830184611a3b565b92915050565b60008115159050919050565b611a7a81611a65565b82525050565b600081519050919050565b600082825260208201905092915050565b60005b83811015611aba578082015181840152602081019050611a9f565b83811115611ac9576000848401525b50505050565b6000601f19601f8301169050919050565b6000611aeb82611a80565b611af58185611a8b565b9350611b05818560208601611a9c565b611b0e81611acf565b840191505092915050565b6000604082019050611b2e6000830185611a71565b8181036020830152611b408184611ae0565b90509392505050565b600060208284031215611b5f57611b5e611832565b5b6000611b6d8482850161185d565b91505092915050565b600080fd5b7f4e487b7100000000000000000000000000000000000000000000000000000000600052604160045260246000fd5b611bb382611acf565b810181811067ffffffffffffffff82111715611bd257611bd1611b7b565b5b80604052505050565b6000611be5611828565b9050611bf18282611baa565b919050565b600067ffffffffffffffff821115611c1157611c10611b7b565b5b611c1a82611acf565b9050602081019050919050565b82818337600083830152505050565b6000611c49611c4484611bf6565b611bdb565b905082815260208101848484011115611c6557611c64611b76565b5b611c70848285611c27565b509392505050565b600082601f830112611c8d57611c8c611957565b5b8135611c9d848260208601611c36565b91505092915050565b600067ffffffffffffffff821115611cc157611cc0611b7b565b5b602082029050602081019050919050565b611cdb81611a29565b8114611ce657600080fd5b50565b600081359050611cf881611cd2565b92915050565b6000611d11611d0c84611ca6565b611bdb565b90508083825260208201905060208402830185811115611d3457611d33611961565b5b835b81811015611d5d5780611d498882611ce9565b845260208401935050602081019050611d36565b5050509392505050565b600082601f830112611d7c57611d7b611957565b5b8135611d8c848260208601611cfe565b91505092915050565b600067ffffffffffffffff821115611db057611daf611b7b565b5b602082029050602081019050919050565b6000611dd4611dcf84611d95565b611bdb565b90508083825260208201905060208402830185811115611df757611df6611961565b5b835b81811015611e205780611e0c888261185d565b845260208401935050602081019050611df9565b5050509392505050565b600082601f830112611e3f57611e3e611957565b5b8135611e4f848260208601611dc1565b91505092915050565b600080600080600080600060e0888a031215611e7757611e76611832565b5b600088013567ffffffffffffffff811115611e9557611e94611837565b5b611ea18a828b01611c78565b975050602088013567ffffffffffffffff811115611ec257611ec1611837565b5b611ece8a828b01611c78565b965050604088013567ffffffffffffffff811115611eef57611eee611837565b5b611efb8a828b01611d67565b955050606088013567ffffffffffffffff811115611f1c57611f1b611837565b5b611f288a828b01611e2a565b945050608088013567ffffffffffffffff811115611f4957611f48611837565b5b611f558a828b01611d67565b93505060a0611f668a828b01611ce9565b92505060c0611f778a828b01611ce9565b91505092959891949750929550565b6000819050919050565b6000611fab611fa6611fa184611a09565b611f86565b611a09565b9050919050565b6000611fbd82611f90565b9050919050565b6000611fcf82611fb2565b9050919050565b611fdf81611fc4565b82525050565b6000602082019050611ffa6000830184611fd6565b92915050565b60006020828403121561201657612015611832565b5b600061202484828501611ce9565b91505092915050565b600082825260208201905092915050565b7f4e6f74204f776e65720000000000000000000000000000000000000000000000600082015250565b600061207460098361202d565b915061207f8261203e565b602082019050919050565b600060208201905081810360008301526120a381612067565b9050919050565b7f4e487b7100000000000000000000000000000000000000000000000000000000600052603260045260246000fd5b7f4e487b7100000000000000000000000000000000000000000000000000000000600052601160045260246000fd5b60006121138261183c565b915061211e8361183c565b9250817fffffffffffffffffffffffffffffffffffffffffffffffffffffffffffffffff0483118215151615612157576121566120d9565b5b828202905092915050565b7f4e487b7100000000000000000000000000000000000000000000000000000000600052601260045260246000fd5b600061219c8261183c565b91506121a78361183c565b9250826121b7576121b6612162565b5b828204905092915050565b60006121cd8261183c565b91506121d88361183c565b9250828210156121eb576121ea6120d9565b5b828203905092915050565b6121ff81611a29565b82525050565b61220e816117ef565b82525050565b61221d8161183c565b82525050565b61222c81611a09565b82525050565b6101008201600082015161224960008501826121f6565b50602082015161225c60208501826121f6565b50604082015161226f6040850182612205565b50606082015161228260608501826121f6565b5060808201516122956080850182612214565b5060a08201516122a860a0850182612214565b5060c08201516122bb60c0850182612214565b5060e08201516122ce60e0850182612223565b50505050565b6000610100820190506122ea6000830184612232565b92915050565b6000815190506122ff81611846565b92915050565b60006020828403121561231b5761231a611832565b5b6000612329848285016122f0565b91505092915050565b600061233d8261183c565b91506123488361183c565b9250827fffffffffffffffffffffffffffffffffffffffffffffffffffffffffffffffff0382111561237d5761237c6120d9565b5b828201905092915050565b600060e08201905061239d600083018a61192d565b6123aa602083018961192d565b6123b76040830188611a3b565b6123c4606083018761192d565b6123d16080830186611a3b565b6123de60a083018561192d565b6123eb60c083018461192d565b98975050505050505050565b60006124028261183c565b91507fffffffffffffffffffffffffffffffffffffffffffffffffffffffffffffffff821415612435576124346120d9565b5b600182019050919050565b6000606082019050612455600083018661192d565b612462602083018561192d565b61246f604083018461192d565b949350505050565b7f4e487b7100000000000000000000000000000000000000000000000000000000600052602160045260246000fd5b600060c0820190506124bb600083018961192d565b6124c8602083018861192d565b6124d5604083018761192d565b6124e2606083018661192d565b6124ef608083018561192d565b6124fc60a083018461192d565b979650505050505050565b7f4f776e61626c653a2063616c6c6572206973206e6f7420746865206f776e6572600082015250565b600061253d60208361202d565b915061254882612507565b602082019050919050565b6000602082019050818103600083015261256c81612530565b9050919050565b600081519050919050565b600061258982612573565b612593818561202d565b93506125a3818560208601611a9c565b6125ac81611acf565b840191505092915050565b600281106125c8576125c7612477565b5b50565b60008190506125d9826125b7565b919050565b60006125e9826125cb565b9050919050565b6125f9816125de565b82525050565b6000819050919050565b600061262461261f61261a846125ff565b611f86565b61183c565b9050919050565b61263481612609565b82525050565b600061018082019050612650600083018f61192d565b8181036020830152612662818e61257e565b90508181036040830152612676818d61257e565b9050612685606083018c611a3b565b612692608083018b61192d565b61269f60a083018a61192d565b6126ac60c0830189611a3b565b6126b960e0830188611a3b565b6126c76101008301876125f0565b6126d561012083018661262b565b6126e361014083018561262b565b6126f1610160830184611a71565b9d9c50505050505050505050505050565b600060e082019050612717600083018a61192d565b612724602083018961192d565b6127316040830188611a3b565b61273e606083018761192d565b61274b6080830186611a3b565b61275860a083018561262b565b61276560c083018461262b565b98975050505050505050565b7f4f776e61626c653a206e6577206f776e657220697320746865207a65726f206160008201527f6464726573730000000000000000000000000000000000000000000000000000602082015250565b60006127cd60268361202d565b91506127d882612771565b604082019050919050565b600060208201905081810360008301526127fc816127c0565b9050919050565b60006060820190506128186000830186611a3b565b6128256020830185611a3b565b612832604083018461192d565b949350505050565b600081905092915050565b600061285082611a80565b61285a818561283a565b935061286a818560208601611a9c565b80840191505092915050565b60006128828284612845565b915081905092915050565b61289681611a65565b81146128a157600080fd5b50565b6000815190506128b38161288d565b92915050565b6000602082840312156128cf576128ce611832565b5b60006128dd848285016128a4565b91505092915050565b7f5472616e7366657248656c7065723a3a7472616e7366657246726f6d3a20747260008201527f616e7366657246726f6d206661696c6564000000000000000000000000000000602082015250565b600061294260318361202d565b915061294d826128e6565b604082019050919050565b6000602082019050818103600083015261297181612935565b9050919050565b600060408201905061298d6000830185611a3b565b61299a602083018461192d565b9392505050565b7f5472616e7366657248656c7065723a3a73616665417070726f76653a2061707060008201527f726f7665206661696c6564000000000000000000000000000000000000000000602082015250565b60006129fd602b8361202d565b9150612a08826129a1565b604082019050919050565b60006020820190508181036000830152612a2c816129f0565b9050919050565b7f4c696d6974204578636965640000000000000000000000000000000000000000600082015250565b6000612a69600c8361202d565b9150612a7482612a33565b602082019050919050565b60006020820190508181036000830152612a9881612a5c565b9050919050565b7f4e487b7100000000000000000000000000000000000000000000000000000000600052602260045260246000fd5b60006002820490506001821680612ae657607f821691505b60208210811415612afa57612af9612a9f565b5b5091905056fea264697066735822122090996d0b784daa94667227aea580e9af4e650d58946bc3966c2626b6ee3b09ba64736f6c634300080a0033",
  "linkReferences": {},
  "deployedLinkReferences": {}
}