{
  "_format": "hh-sol-artifact-1",
  "contractName": "Users",
  "sourceName": "contracts/Users.sol",
  "abi": [
    {
      "inputs": [
        {
          "internalType": "address",
          "name": "nftAddress",
          "type": "address"
        }
      ],
      "stateMutability": "nonpayable",
      "type": "constructor"
    },
    {
      "anonymous": false,
      "inputs": [
        {
          "indexed": false,
          "internalType": "string",
          "name": "username",
          "type": "string"
        },
        {
          "indexed": false,
          "internalType": "address",
          "name": "owner",
          "type": "address"
        },
        {
          "indexed": false,
          "internalType": "address",
          "name": "accountAddress",
          "type": "address"
        },
        {
          "indexed": false,
          "internalType": "address",
          "name": "nftAddress",
          "type": "address"
        },
        {
          "indexed": false,
          "internalType": "uint256",
          "name": "nftId",
          "type": "uint256"
        }
      ],
      "name": "UserAccountCreated",
      "type": "event"
    },
    {
      "inputs": [
        {
          "internalType": "string",
          "name": "metadata",
          "type": "string"
        },
        {
          "internalType": "string",
          "name": "_username",
          "type": "string"
        }
      ],
      "name": "createAccount",
      "outputs": [],
      "stateMutability": "nonpayable",
      "type": "function"
    },
    {
      "inputs": [],
      "name": "randomResult",
      "outputs": [
        {
          "internalType": "uint256",
          "name": "",
          "type": "uint256"
        }
      ],
      "stateMutability": "view",
      "type": "function"
    },
    {
      "inputs": [
        {
          "internalType": "bytes32",
          "name": "requestId",
          "type": "bytes32"
        },
        {
          "internalType": "uint256",
          "name": "randomness",
          "type": "uint256"
        }
      ],
      "name": "rawFulfillRandomness",
      "outputs": [],
      "stateMutability": "nonpayable",
      "type": "function"
    }
  ],
  "bytecode": "0x60c060405234801561001057600080fd5b5060405162001d4a38038062001d4a833981810160405281019061003491906101a9565b738c7382f9d8f56b33781fe506e897a4f1e2d1725573326c977e6efc84e512bb9c30f76e30c160ed06fb8173ffffffffffffffffffffffffffffffffffffffff1660a08173ffffffffffffffffffffffffffffffffffffffff16815250508073ffffffffffffffffffffffffffffffffffffffff1660808173ffffffffffffffffffffffffffffffffffffffff168152505050507f6e75b569a01ef56d18cab6a8e71e6600d6ce853834d4a5748b720d06f878b3a460001b600181905550655af3107a400060028190555080600360006101000a81548173ffffffffffffffffffffffffffffffffffffffff021916908373ffffffffffffffffffffffffffffffffffffffff160217905550506101d6565b600080fd5b600073ffffffffffffffffffffffffffffffffffffffff82169050919050565b60006101768261014b565b9050919050565b6101868161016b565b811461019157600080fd5b50565b6000815190506101a38161017d565b92915050565b6000602082840312156101bf576101be610146565b5b60006101cd84828501610194565b91505092915050565b60805160a051611b406200020a600039600081816102ab015261049101526000818161035101526104550152611b406000f3fe60806040523480156200001157600080fd5b5060043610620000465760003560e01c806319289287146200004b57806342619f66146200006b57806394985ddd146200008d575b600080fd5b620000696004803603810190620000639190620007a5565b620000ad565b005b62000075620002a3565b60405162000084919062000845565b60405180910390f35b620000ab6004803603810190620000a59190620008ce565b620002a9565b005b6000620000b96200034a565b60001c90506000600360009054906101000a900473ffffffffffffffffffffffffffffffffffffffff1690508073ffffffffffffffffffffffffffffffffffffffff1663cd279c7c3384876040518463ffffffff1660e01b81526004016200012493929190620009ed565b600060405180830381600087803b1580156200013f57600080fd5b505af115801562000154573d6000803e3d6000fd5b50505050600033600360009054906101000a900473ffffffffffffffffffffffffffffffffffffffff16846040516200018d9062000621565b6200019b9392919062000a31565b604051809103906000f080158015620001b8573d6000803e3d6000fd5b50905080600560003373ffffffffffffffffffffffffffffffffffffffff1673ffffffffffffffffffffffffffffffffffffffff16815260200190815260200160002060006101000a81548173ffffffffffffffffffffffffffffffffffffffff021916908373ffffffffffffffffffffffffffffffffffffffff1602179055507fde92099e77e0524b81bdfe0899859e9358a86c36e7c19f2907cca633565f9f1e843383600360009054906101000a900473ffffffffffffffffffffffffffffffffffffffff16876040516200029495949392919062000a6e565b60405180910390a15050505050565b60045481565b7f000000000000000000000000000000000000000000000000000000000000000073ffffffffffffffffffffffffffffffffffffffff163373ffffffffffffffffffffffffffffffffffffffff16146200033a576040517f08c379a0000000000000000000000000000000000000000000000000000000008152600401620003319062000b22565b60405180910390fd5b62000346828262000446565b5050565b60006002547f000000000000000000000000000000000000000000000000000000000000000073ffffffffffffffffffffffffffffffffffffffff166370a08231306040518263ffffffff1660e01b8152600401620003aa919062000b44565b602060405180830381865afa158015620003c8573d6000803e3d6000fd5b505050506040513d601f19601f82011682018060405250810190620003ee919062000b78565b1162000431576040517f08c379a0000000000000000000000000000000000000000000000000000000008152600401620004289062000c20565b60405180910390fd5b6200044160015460025462000451565b905090565b806004819055505050565b60007f000000000000000000000000000000000000000000000000000000000000000073ffffffffffffffffffffffffffffffffffffffff16634000aea07f000000000000000000000000000000000000000000000000000000000000000084866000604051602001620004c792919062000c53565b6040516020818303038152906040526040518463ffffffff1660e01b8152600401620004f69392919062000cdd565b6020604051808303816000875af115801562000516573d6000803e3d6000fd5b505050506040513d601f19601f820116820180604052508101906200053c919062000d5e565b506000620005608460003060008089815260200190815260200160002054620005ae565b905060016000808681526020019081526020016000205462000583919062000dbf565b60008086815260200190815260200160002081905550620005a58482620005ec565b91505092915050565b600084848484604051602001620005c9949392919062000e1c565b6040516020818303038152906040528051906020012060001c9050949350505050565b600082826040516020016200060392919062000eb3565b60405160208183030381529060405280519060200120905092915050565b610c278062000ee483390190565b6000604051905090565b600080fd5b600080fd5b600080fd5b600080fd5b6000601f19601f8301169050919050565b7f4e487b7100000000000000000000000000000000000000000000000000000000600052604160045260246000fd5b62000698826200064d565b810181811067ffffffffffffffff82111715620006ba57620006b96200065e565b5b80604052505050565b6000620006cf6200062f565b9050620006dd82826200068d565b919050565b600067ffffffffffffffff8211156200070057620006ff6200065e565b5b6200070b826200064d565b9050602081019050919050565b82818337600083830152505050565b60006200073e6200073884620006e2565b620006c3565b9050828152602081018484840111156200075d576200075c62000648565b5b6200076a84828562000718565b509392505050565b600082601f8301126200078a576200078962000643565b5b81356200079c84826020860162000727565b91505092915050565b60008060408385031215620007bf57620007be62000639565b5b600083013567ffffffffffffffff811115620007e057620007df6200063e565b5b620007ee8582860162000772565b925050602083013567ffffffffffffffff8111156200081257620008116200063e565b5b620008208582860162000772565b9150509250929050565b6000819050919050565b6200083f816200082a565b82525050565b60006020820190506200085c600083018462000834565b92915050565b6000819050919050565b620008778162000862565b81146200088357600080fd5b50565b60008135905062000897816200086c565b92915050565b620008a8816200082a565b8114620008b457600080fd5b50565b600081359050620008c8816200089d565b92915050565b60008060408385031215620008e857620008e762000639565b5b6000620008f88582860162000886565b92505060206200090b85828601620008b7565b9150509250929050565b600073ffffffffffffffffffffffffffffffffffffffff82169050919050565b6000620009428262000915565b9050919050565b620009548162000935565b82525050565b600081519050919050565b600082825260208201905092915050565b60005b838110156200099657808201518184015260208101905062000979565b83811115620009a6576000848401525b50505050565b6000620009b9826200095a565b620009c5818562000965565b9350620009d781856020860162000976565b620009e2816200064d565b840191505092915050565b600060608201905062000a04600083018662000949565b62000a13602083018562000834565b818103604083015262000a278184620009ac565b9050949350505050565b600060608201905062000a48600083018662000949565b62000a57602083018562000949565b62000a66604083018462000834565b949350505050565b600060a082019050818103600083015262000a8a8188620009ac565b905062000a9b602083018762000949565b62000aaa604083018662000949565b62000ab9606083018562000949565b62000ac8608083018462000834565b9695505050505050565b7f4f6e6c7920565246436f6f7264696e61746f722063616e2066756c66696c6c00600082015250565b600062000b0a601f8362000965565b915062000b178262000ad2565b602082019050919050565b6000602082019050818103600083015262000b3d8162000afb565b9050919050565b600060208201905062000b5b600083018462000949565b92915050565b60008151905062000b72816200089d565b92915050565b60006020828403121562000b915762000b9062000639565b5b600062000ba18482850162000b61565b91505092915050565b7f4e6f7420656e6f756768204c494e4b202d2066696c6c20636f6e74726163742060008201527f7769746820666175636574000000000000000000000000000000000000000000602082015250565b600062000c08602b8362000965565b915062000c158262000baa565b604082019050919050565b6000602082019050818103600083015262000c3b8162000bf9565b9050919050565b62000c4d8162000862565b82525050565b600060408201905062000c6a600083018562000c42565b62000c79602083018462000834565b9392505050565b600081519050919050565b600082825260208201905092915050565b600062000ca98262000c80565b62000cb5818562000c8b565b935062000cc781856020860162000976565b62000cd2816200064d565b840191505092915050565b600060608201905062000cf4600083018662000949565b62000d03602083018562000834565b818103604083015262000d17818462000c9c565b9050949350505050565b60008115159050919050565b62000d388162000d21565b811462000d4457600080fd5b50565b60008151905062000d588162000d2d565b92915050565b60006020828403121562000d775762000d7662000639565b5b600062000d878482850162000d47565b91505092915050565b7f4e487b7100000000000000000000000000000000000000000000000000000000600052601160045260246000fd5b600062000dcc826200082a565b915062000dd9836200082a565b9250827fffffffffffffffffffffffffffffffffffffffffffffffffffffffffffffffff0382111562000e115762000e1062000d90565b5b828201905092915050565b600060808201905062000e33600083018762000c42565b62000e42602083018662000834565b62000e51604083018562000949565b62000e60606083018462000834565b95945050505050565b6000819050919050565b62000e8862000e828262000862565b62000e69565b82525050565b6000819050919050565b62000ead62000ea7826200082a565b62000e8e565b82525050565b600062000ec1828562000e73565b60208201915062000ed3828462000e98565b602082019150819050939250505056fe60806040523480156200001157600080fd5b5060405162000c2738038062000c2783398181016040528101906200003791906200016d565b826000806101000a81548173ffffffffffffffffffffffffffffffffffffffff021916908373ffffffffffffffffffffffffffffffffffffffff16021790555081600160006101000a81548173ffffffffffffffffffffffffffffffffffffffff021916908373ffffffffffffffffffffffffffffffffffffffff16021790555080600281905550505050620001c9565b600080fd5b600073ffffffffffffffffffffffffffffffffffffffff82169050919050565b6000620000fa82620000cd565b9050919050565b6200010c81620000ed565b81146200011857600080fd5b50565b6000815190506200012c8162000101565b92915050565b6000819050919050565b620001478162000132565b81146200015357600080fd5b50565b60008151905062000167816200013c565b92915050565b600080600060608486031215620001895762000188620000c8565b5b600062000199868287016200011b565b9350506020620001ac868287016200011b565b9250506040620001bf8682870162000156565b9150509250925092565b610a4e80620001d96000396000f3fe60806040526004361061004e5760003560e01c806312065fe01461005a5780632e1a7d4d14610085578063310fe8a4146100a15780638da5cb5b146100ca578063b588d225146100f557610055565b3661005557005b600080fd5b34801561006657600080fd5b5061006f610132565b60405161007c9190610680565b60405180910390f35b61009f600480360381019061009a91906106cc565b61013a565b005b3480156100ad57600080fd5b506100c860048036038101906100c39190610757565b61034b565b005b3480156100d657600080fd5b506100df6105bb565b6040516100ec91906107b8565b60405180910390f35b34801561010157600080fd5b5061011c600480360381019061011791906107d3565b6105df565b6040516101299190610680565b60405180910390f35b600047905090565b6000600160009054906101000a900473ffffffffffffffffffffffffffffffffffffffff16905060008173ffffffffffffffffffffffffffffffffffffffff16636352211e6002546040518263ffffffff1660e01b815260040161019e9190610680565b602060405180830381865afa1580156101bb573d6000803e3d6000fd5b505050506040513d601f19601f820116820180604052508101906101df9190610815565b905060008054906101000a900473ffffffffffffffffffffffffffffffffffffffff1673ffffffffffffffffffffffffffffffffffffffff163373ffffffffffffffffffffffffffffffffffffffff161461023957600080fd5b8073ffffffffffffffffffffffffffffffffffffffff163373ffffffffffffffffffffffffffffffffffffffff161461027157600080fd5b60008054906101000a900473ffffffffffffffffffffffffffffffffffffffff1673ffffffffffffffffffffffffffffffffffffffff163373ffffffffffffffffffffffffffffffffffffffff16146102ff576040517f08c379a00000000000000000000000000000000000000000000000000000000081526004016102f69061089f565b60405180910390fd5b3373ffffffffffffffffffffffffffffffffffffffff166108fc849081150290604051600060405180830381858888f19350505050158015610345573d6000803e3d6000fd5b50505050565b6000600160009054906101000a900473ffffffffffffffffffffffffffffffffffffffff16905060008173ffffffffffffffffffffffffffffffffffffffff16636352211e6002546040518263ffffffff1660e01b81526004016103af9190610680565b602060405180830381865afa1580156103cc573d6000803e3d6000fd5b505050506040513d601f19601f820116820180604052508101906103f09190610815565b905060008054906101000a900473ffffffffffffffffffffffffffffffffffffffff1673ffffffffffffffffffffffffffffffffffffffff163373ffffffffffffffffffffffffffffffffffffffff161461044a57600080fd5b8073ffffffffffffffffffffffffffffffffffffffff163373ffffffffffffffffffffffffffffffffffffffff161461048257600080fd5b60008054906101000a900473ffffffffffffffffffffffffffffffffffffffff1673ffffffffffffffffffffffffffffffffffffffff163373ffffffffffffffffffffffffffffffffffffffff1614610510576040517f08c379a00000000000000000000000000000000000000000000000000000000081526004016105079061089f565b60405180910390fd5b60008490508073ffffffffffffffffffffffffffffffffffffffff1663a9059cbb60008054906101000a900473ffffffffffffffffffffffffffffffffffffffff16866040518363ffffffff1660e01b815260040161057092919061091e565b6020604051808303816000875af115801561058f573d6000803e3d6000fd5b505050506040513d601f19601f820116820180604052508101906105b3919061097f565b505050505050565b60008054906101000a900473ffffffffffffffffffffffffffffffffffffffff1681565b6000808290508073ffffffffffffffffffffffffffffffffffffffff166370a08231306040518263ffffffff1660e01b815260040161061e91906109bb565b602060405180830381865afa15801561063b573d6000803e3d6000fd5b505050506040513d601f19601f8201168201806040525081019061065f91906109eb565b915050919050565b6000819050919050565b61067a81610667565b82525050565b60006020820190506106956000830184610671565b92915050565b600080fd5b6106a981610667565b81146106b457600080fd5b50565b6000813590506106c6816106a0565b92915050565b6000602082840312156106e2576106e161069b565b5b60006106f0848285016106b7565b91505092915050565b600073ffffffffffffffffffffffffffffffffffffffff82169050919050565b6000610724826106f9565b9050919050565b61073481610719565b811461073f57600080fd5b50565b6000813590506107518161072b565b92915050565b6000806040838503121561076e5761076d61069b565b5b600061077c85828601610742565b925050602061078d858286016106b7565b9150509250929050565b60006107a2826106f9565b9050919050565b6107b281610797565b82525050565b60006020820190506107cd60008301846107a9565b92915050565b6000602082840312156107e9576107e861069b565b5b60006107f784828501610742565b91505092915050565b60008151905061080f8161072b565b92915050565b60006020828403121561082b5761082a61069b565b5b600061083984828501610800565b91505092915050565b600082825260208201905092915050565b7f63616c6c6572206973206e6f74206f776e657200000000000000000000000000600082015250565b6000610889601383610842565b915061089482610853565b602082019050919050565b600060208201905081810360008301526108b88161087c565b9050919050565b6000819050919050565b60006108e46108df6108da846106f9565b6108bf565b6106f9565b9050919050565b60006108f6826108c9565b9050919050565b6000610908826108eb565b9050919050565b610918816108fd565b82525050565b6000604082019050610933600083018561090f565b6109406020830184610671565b9392505050565b60008115159050919050565b61095c81610947565b811461096757600080fd5b50565b60008151905061097981610953565b92915050565b6000602082840312156109955761099461069b565b5b60006109a38482850161096a565b91505092915050565b6109b581610719565b82525050565b60006020820190506109d060008301846109ac565b92915050565b6000815190506109e5816106a0565b92915050565b600060208284031215610a0157610a0061069b565b5b6000610a0f848285016109d6565b9150509291505056fea2646970667358221220c01d3e7961daf57995672cb2faedd5c0ae695549c7377202e37625ce0a7f554764736f6c634300080a0033a2646970667358221220877a624bfa5528b46c6e87bc0eceb1c9944cb3522ce7b0de92cbe423ef9ee3c164736f6c634300080a0033",
  "linkReferences": {},
  "deployedLinkReferences": {}
}